:020000040800F2
:1000000000000220191D0008DD1C0008DF1C00088C
:10001000E11C0008E31C0008E51C000800000000CB
:10002000000000000000000000000000E71C0008C5
:10003000E91C000800000000EB1C0008ED1C000893
:10004000691D0008691D0008691D0008691D000878
:10005000691D0008691D0008691D0008691D000868
:10006000691D0008691D0008691D0008691D000858
:10007000691D0008691D0008691D0008691D000848
:10008000691D0008691D0008691D0008691D000838
:10009000691D0008691D0008691D0008691D000828
:1000A000691D0008691D0008691D0008691D000818
:1000B000691D0008691D0008691D0008691D000808
:1000C000691D0008691D0008691D0008691D0008F8
:1000D000691D0008691D0008691D0008691D0008E8
:1000E000691D0008691D0008691D0008691D0008D8
:1000F000691D0008691D0008691D0008691D0008C8
:10010000691D0008691D0008691D0008691D0008B7
:10011000691D0008691D0008691D0008691D0008A7
:10012000691D0008691D0008691D0008691D000897
:10013000691D0008691D0008691D0008691D000887
:10014000691D0008691D0008691D0008691D000877
:10015000691D0008691D0008691D0008691D000867
:10016000691D0008691D0008691D0008691D000857
:10017000691D0008691D0008691D000800000000D5
:08018000691D0008691D00085B
:1001880010B5054C237833B9044B13B10448AFF3C9
:1001980000800123237010BD3401002000000000FE
:1001A8002431000808B5034B1BB103490348AFF3DA
:1001B800008008BD0000000038010020243100083C
:1001C8004FF0FF0C1CEAD0521EBF1CEAD15392EA32
:1001D8000C0F93EA0C0F6FD01A4480EA010C40020E
:1001E80018BF5FEA41211ED04FF0006343EA501068
:1001F80043EA5111A0FB01310CF00040B1F5000FAA
:100208003EBF490041EAD3715B0040EA010062F158
:100218007F02FD2A1DD8B3F1004F40EBC25008BF42
:1002280020F00100704790F0000F0CF0004C08BF60
:1002380049024CEA502040EA51207F3AC2BFD2F12D
:10024800FF0340EAC250704740F400004FF000033B
:10025800013A5DDC12F1190FDCBF00F00040704775
:10026800C2F10002410021FA02F1C2F1200200FAB3
:1002780002FC5FEA310040F1000053EA4C0308BF7A
:1002880020EADC70704792F0000F00F0004C02BFCB
:10029800400010F4000F013AF9D040EA0C0093F046
:1002A800000F01F0004C02BF490011F4000F013BA0
:1002B800F9D041EA0C018FE70CEAD15392EA0C0F0E
:1002C80018BF93EA0C0F0AD030F0004C18BF31F079
:1002D800004CD8D180EA010000F00040704790F04F
:1002E800000F17BF90F0004F084691F0000F91F0F3
:1002F800004F14D092EA0C0F01D142020FD193EAB9
:100308000C0F03D14B0218BF084608D180EA010040
:1003180000F0004040F0FE4040F40000704740F01C
:10032800FE4040F44000704780F0004002E000BF0B
:1003380081F0004142001FBF5FEA410392EA030FC8
:100348007FEA226C7FEA236C6AD04FEA1262D2EB12
:100358001363C1BFD218414048404140B8BF5B4217
:10036800192B88BF704710F0004F40F4000020F0B0
:100378007F4018BF404211F0004F41F4000121F0C6
:100388007F4118BF494292EA030F3FD0A2F1010210
:1003980041FA03FC10EB0C00C3F1200301FA03F14E
:1003A80000F0004302D5494260EB4000B0F5000F71
:1003B80013D3B0F1807F06D340084FEA310102F130
:1003C8000102FE2A51D2B1F1004F40EBC25008BFE2
:1003D80020F0010040EA03007047490040EB0000AC
:1003E800013A28BFB0F5000FEDD2B0FA80FCACF1AD
:1003F800080CB2EB0C0200FA0CF0AABF00EBC250DA
:1004080052421843BCBFD0401843704792F0000FC7
:1004180081F4000106BF80F400000132013BB5E71A
:100428004FEA41037FEA226C18BF7FEA236C21D090
:1004380092EA030F04D092F0000F08BF08467047F5
:1004480090EA010F1CBF0020704712F07F4F04D1C3
:10045800400028BF40F00040704712F100723CBFD6
:1004680000F50000704700F0004343F0FE4040F400
:10047800000070477FEA226216BF08467FEA2363BE
:100488000146420206BF5FEA412390EA010F40F4A9
:10049800800070474FF0000304E000BF10F00043F5
:1004A80048BF40425FEA000C08BF704743F09643DC
:1004B80001464FF000001CE050EA010208BF7047F7
:1004C8004FF000030AE000BF50EA010208BF70477E
:1004D80011F0004302D5404261EB41015FEA010C93
:1004E80002BF84460146002043F0B64308BFA3F18B
:1004F8008053A3F50003BCFA8CF2083AA3EBC2536D
:1005080010DB01FA02FC634400FA02FCC2F120028B
:10051800BCF1004F20FA02F243EB020008BF20F0C2
:100528000100704702F1200201FA02FCC2F1200228
:1005380050EA4C0021FA02F243EB020008BF20EA1D
:10054800DC70704753B94AB9002908BF00281CBF9E
:100558004FF0FF314FF0FF3001F0F6B8ADF1080C65
:100568006DE904CE00F006F8DDF804E0DDE90223C9
:1005780004B070472DE9F047089D0C46002B4ED17A
:1005880094468C458646B2FA82F262D94AB1C2F1E3
:100598002003914020FA03F30CFA02FC194300FAF5
:1005A80002FE4FEA1C471FFA8CF6B1FBF7F44FEA3C
:1005B8001E4307FB141143EA014304FB06F1994269
:1005C8000AD91CEB030304F1FF3080F01281994231
:1005D80040F20F81023C6344591A1FFA8EF3B1FBB3
:1005E800F7F007FB101143EA014300FB06F69E42B1
:1005F8000AD91CEB030300F1FF3180F0FC809E4216
:1006080040F2F980634402389B1B40EA0440002111
:100618001DB1D3400022C5E90032BDE8F0878B4206
:1006280005D90DB1C5E9000100210846F5E7B3FA7F
:1006380083F1002946D1A34202D39042C0F0F08052
:10064800861A64EB03030120002DE6D0C5E9006398
:10065800E3E7002A40F09080A1EB0C044FEA1C4825
:100668001FFA8CF70121B4FBF8F64FEA1E4308FB8A
:10067800164443EA044307FB06F0984208D91CEBEA
:10068800030306F1FF3402D2984200F2CD802646D9
:100698001C1A1FFA8EF3B4FBF8F008FB104443EA67
:1006A800044300FB07F79F4208D91CEB030300F142
:1006B800FF3402D29F4200F2B0802046DB1B40EAA2
:1006C8000640A5E7C1F120068B4022FA06F71F4332
:1006D80020FA06FC04FA01F343EA0C03F44000FA9A
:1006E80001F8380C4FEA1349B4FBF0FE1FFA87FCF7
:1006F80000FB1E4449EA04440EFB0CF9A14502FA2A
:1007080001F20AD93C190EF1FF3A80F08480A14524
:1007180040F28180AEF1020E3C44A4EB09041FFABA
:1007280083F9B4FBF0F300FB134449EA044403FBE8
:100738000CFCA44507D93C1903F1FF3067D2A44546
:1007480065D9023B3C4443EA0E40A0FB0293A4EB6C
:100758000C049C42CE469C4651D34ED055B1B8EBC2
:100768000E0364EB0C0404FA06F6CB401E43CC409F
:10077800C5E90064002150E7C2F1200320FA03F123
:100788000CFA02FC24FA03F394400C434FEA1C4889
:1007980000FA02FE1FFA8CF7B3FBF8F008FB1031E1
:1007A800230C43EA014300FB07F1994208D91CEBEB
:1007B800030300F1FF362CD299422AD90238634448
:1007C8005B1AA4B2B3FBF8F108FB113344EA034403
:1007D80001FB07F3A34208D91CEB040401F1FF361F
:1007E80013D2A34211D902396444E41A41EA004100
:1007F80039E70446F0E6084606E7C845AED2B9EB45
:10080800020E63EB070C0138A8E73146EDE7034613
:1008180099E73046D4E7D6467FE7634402384DE788
:100828000646234608460FE7023E634430E700BF0A
:1008380003685A004CBF43F0004323F000431844B8
:10084800704700BF2DE9F84349B34F1E04461546CB
:100858003E464FF0000909EB060101EBD171491042
:1008680004EBC1084046FFF7E3FF8F4203464FEA17
:10087800C1000FD00830AB42204407D8FFF7D8FF9B
:100888000138A84208D201F10109E4E7894506D0F8
:100898004E1EE0E7AB42F9D84046BDE8F8834FF07A
:1008A80000084046BDE8F883012807D0022807D091
:1008B800044B00280CBF18460020704702487047B8
:1008C80002487047790F00087D0F0008810F000863
:1008D80030B5214B83B004468D1E1BB301A92846B1
:1008E800AFF3008088B301992A46FFF7ABFF0146B2
:1008F80058B3FFF79DFF4B68A064012B28D0002B4D
:1009080001F104001FDBFFF793FF00232365036851
:10091800E064002B0DDBFFF78BFF0346002023610B
:1009280003B030BD0D4B0E49C91AC91018460191C4
:10093800DAE7C3F30360FFF7B7FF034628B10020E7
:10094800236103B030BD0123E0E700230920E6E777
:1009580000230520E3E700BF0000000094310008F1
:10096800A43200080368DA0710B5044606D49B07CA
:1009780000F1480009D500F069FC2368590709D53A
:100988001A070ED5DB0613D510BD00F057FC2368F7
:100998005907F5D404F1D00000F060FC23681A0769
:1009A800F0D404F5A87000F061FC2368DB06EBD4F2
:1009B80004F5E870BDE8104000F09CBC09207047C1
:1009C8000346006800B11844704700BF704700BF75
:1009D80070B504460E46316C2046FFF779FF054690
:1009E80088B9326C626123693246214601209847F2
:1009F8000828F0D0072806D12846316CFFF7E6FF13
:100A0800301D00F00FFC02F096FA00BF2DE9F04708
:100A18000D1DD0F80C80D0F81890074614460FCD5D
:100A2800ADF5727D0DF10C0CACE80F000FCDACE804
:100A38000F000FCDACE80F0095E80F0002AE4FF0A5
:100A4800000E8CE80F00C6F800E020E0336C7B61F4
:100A58004FF4F07231467AA802F0EEFA3B697AAAAE
:100A6800394650469847889B73642146CDE900690A
:100A780005463B463A460120C047044618BB4FF49A
:100A8800F0727AA9304602F0D7FA082D19D1316CE4
:100A98003846FFF71DFF09345FFA84FA0546002837
:100AA800D4D0B36B73643A46CDE900693B464AF04B
:100AB80010010120C04730B928460DF5727DBDE808
:100AC800F087072D05D0092528460DF5727DBDE86C
:100AD800F0872046316CFFF779FF03A800F0A2FBEE
:100AE800406C7047F0B5CB6B0B6401F1040C0E46FB
:100AF8000546BCE80F00F9B001AC0FC4BCE80F0014
:100B08000FC4BCE80F000FC49CE80F004FF0FF377C
:100B180084E80F00009706E02B696A462946984743
:100B28000828044608D110992846FFF7D1FE002866
:100B3800F2D0092079B0F0BD6846FFF713FF062C04
:100B4800F7D131462846FFF743FF00BFC160D96B94
:100B5800826119640022194658E700BF70B5C6685B
:100B680043690B64AEB903690A4604460D4601465B
:100B780002209847072805D008280FD12946204683
:100B8800FFF726FF3046296CFFF720FF281D00F0ED
:100B980049FB0122FFF73AFF02F0CDF902F0CBF949
:100BA800C2681AB1CA6B0A6400222FE79AE700BF2D
:100BB800704700BF836801460BB101201847704792
:100BC800012910D009D883B90F2A0ED800EB820268
:100BD80018465368009A13607047033901298CBF7F
:100BE800022001207047084670470220704700BF66
:100BF80000B585B00A46002303A900911946FFF7FE
:100C0800DFFF039805B05DF804FB00BF012910D091
:100C180009D883B90F2A0ED8009900EB8202096817
:100C2800516018467047033901298CBF0220012002
:100C38007047084670470220704700BF10B584B05F
:100C4800002303AC039200940A461946FFF7DEFF1F
:100C580004B010BD70B5D36B136402F1040C0546E3
:100C68000C46BCE80F00ADF50E7D0DF15C0EAEE84C
:100C78000F00BCE80F00AEE80F00BCE80F00AEE8BC
:100C88000F009CE80F004FF0FF368EE80F00169615
:100C980010E0FFF7D3FF214616A8A847034616AA77
:100CA8006946082083B9049B9847052806460CD056
:100CB800092809D026996846FFF70AFE03466A46BE
:100CC8000C2116A8002BE4D0092616A8FFF74AFE27
:100CD80030460DF50E7D70BD2DE9F04F9346CA6C78
:100CE80089B00D4652F8041B069200F0030C002B45
:100CF80079D00C0C8DF81D400904E4B2059102EB83
:100D0800840202212F6D8DF81C10BCF1020F08BF60
:100D1800AA6B17F001070CD005A9584600F084FB10
:100D280018B9082009B0BDE8F08F092009B0BDE85E
:100D3800F08F1668002EEFD000F008010191B2463E
:100D4800029764469946B9F1020F48D0B2F800A05C
:100D5800568802F10408AA6C26F001030F215846B0
:100D68009F18FFF745FF874237D82AF001023A4417
:100D7800824294BF00220122730003F002030AF0AA
:100D8800010A43EA0A03012B47D0022B31D0002B7A
:100D9800CBD114B1002A40F0C98008F10402D2F87E
:100DA80000A0BAF1000FCED105A95846029F00F065
:100DB8003BFB0028B9D1002FB3D00F215846FFF7CD
:100DC80017FF0E2102465846FFF738FF674A0F21E2
:100DD8005846FFF733FF0720A8E70022CCE75668FC
:100DE80002F10808B7E7090205918DF81D300321C3
:100DF80088E7D8F8006026F00043002C44D122B1DF
:100E0800019A002A5AD0002B58D0002E01DA08F196
:100E18000408013308EB8302C1E7ECB9CAB1D8F87A
:100E28000430D8F80020991C4FEAD2723FF47DAF05
:100E380005F158010133049100F08B8008F104009A
:100E4800FFF7BEFD04AB01462846AFF3008000283B
:100E580057D108F10802A2E70D215846FFF7C8FE4E
:100E68002B6A8342F5D1AB6A9845F2D14046FFF729
:100E7800DFFC0F2102465846FFF7E0FE2A46002114
:100E88005846FFF7DBFEA6E70D2158460393FFF708
:100E9800AFFE2A6A039B8242B7D1AA6A9045B4D1B1
:100EA80000270422C5E90B724244AB626A63D8F892
:100EB8000020BA4255DB01220292AAE7039408F106
:100EC800040A002605F158071C460DE05046049711
:100ED800FFF776FD0022014604AB284601360AF1E9
:100EE800040AAFF30080E0B9A642EFD10D215846BD
:100EF800FFF77EFE049BC5F82880C5E90803062095
:100F080014E704460D215846FFF772FE049E286236
:100F1800022C04BFEE6205F12C06C5E9096806201B
:100F280004E72346D8F80060039C6EE74046FFF7C5
:100F38007FFC08F104020446AA632846AFF3008048
:100F480000283FF4F2AE22460F215846FFF776FEFE
:100F580041E70C4658460D21FFF74AFE264628620F
:100F6800DBE7581C08EB800081E700BF00000000A9
:100F78000023B1E60123AFE60223ADE62DE9F043F5
:100F88000646C3B015461C46042900F2D180DFE8A6
:100F980001F0AC51CF2A0300002C40F0C980102A80
:100FA80000F2C6800368DC0600F1E78020AF38460F
:100FB80000F0AAF9B46B394600234FF0010C0CFA83
:100FC80003F22A42204603F1010303D050F8042B10
:100FD8000A600446042B01F10401F0D1B4633846D9
:100FE80000F088F999E0032C40F0A28094B204EB59
:100FF8001243102B4FEA124500F29A8003681F072C
:1010080000F1C38020AF384600F052F9B26B07EB0D
:10101800C50154B10B46D01A01EBC401E4001D58B8
:1010280043F8045B8B42FAD12244B263384600F09D
:101038001DF972E0012C4FEA124895B271D0052CC7
:1010480076D108EB0509B9F1200F71D8B8F10F0F67
:1010580072D8B9F1100F036800F29F80D90708D53C
:1010680023F00103304643F0020340F8483B00F008
:10107800F1F820AF384600F0EDF8B36B002D00F022
:10108800B9806D006A1E07EBC801002501320439DA
:1010980003EB820253F8040B41F8040F9342F9D191
:1010A800002D00F0A1804146102938BF10216B00A7
:1010B80010396F46013B07EBC1010133043902EBDC
:1010C800830352F8040B41F8040F9A42F9D1012C1A
:1010D80000F08880B8F10F0FB26302D820A800F0A2
:1010E800B5F8384600F0BAF817E00CBB806B234619
:1010F8001FFA82FC0124371D04FA03F111EA0C0FD0
:10110800024604D052F8041B47F823101046013356
:10111800102BF1D1AC0400D4B063002043B0BDE87B
:10112800F08308EB0503102B02D8B8F1100F14D187
:10113800022043B0BDE8F083002DEED003685A07C3
:101148005CD46F46384600F08DF8B26B6B00A8F19E
:101158001001013B07EBC101AFE70368DA0759D477
:1011680020AF384600F06EF8B36B002D89D10433F8
:10117800B363384600F062F8CFE723F0100303604A
:1011880000F5E87000F0C0F810E723F008030360EA
:1011980000F5A87000F08CF834E7D90708D523F0DB
:1011A800010343F0020340F8483B00F053F833686A
:1011B800580706D5304623F0040340F8D03B00F02A
:1011C80051F820AF384600F045F8684600F04AF874
:1011D800C8F110025200B36BA9F11005013A07EBF0
:1011E800C80153E720AFC2E7012CC0D0B8F10F0FF8
:1011F800B36392D8384600F029F88EE723F0040349
:1012080040F8D03B6F4600F02DF8384600F02AF839
:10121800B26B9BE7304623F0030340F8483B00F0ED
:1012280011F89DE700F1340191E838009C46A64684
:101238004CF8045D90E8FF0FE54600BD90EC210BEB
:10124800704700BF80EC210B704700BF90EC200B6B
:10125800704700BF80EC200B704700BFD0EC200B1C
:10126800704700BFC0EC200B704700BFF0EC0201D4
:10127800F0EC0211F0EC0221F0EC0231F0EC02414A
:10128800F0EC0251F0EC0261F0EC0271F0EC02813A
:10129800F0EC0291F0EC02A1F0EC02B1F0EC02C12A
:1012A800F0EC02D1F0EC02E1F0EC02F1704700BF83
:1012B800E0EC0201E0EC0211E0EC0221E0EC02318A
:1012C800E0EC0241E0EC0251E0EC0261E0EC02717A
:1012D800E0EC0281E0EC0291E0EC02A1E0EC02B16A
:1012E800E0EC02C1E0EC02D1E0EC02E1E0EC02F15A
:1012F800704700BFB0FC0181B0FC0191B0FC01A1B6
:10130800B0FC01B1704700BFA0FC0181A0FC0191B5
:10131800A0FC01A1A0FC01B1704700BFEC4600B5DC
:101328002DE900502DE9FF1F4FF000032DE90C00B7
:1013380001A9FFF7D7FBDDF840E012B0704700BF06
:10134800EC4600B52DE900502DE9FF1F4FF00003D2
:101358002DE90C0001A9FFF701FCDDF840E012B00F
:10136800704700BFEC4600B52DE900502DE9FF1F7E
:101378004FF000032DE90C0001A9FFF711FCDDF87F
:1013880040E012B0704700BFEC4600B52DE90050B0
:101398002DE9FF1F4FF000032DE90C0001ABFFF70B
:1013A800D5FBDDF840E012B0704700BFEC4600B551
:1013B8002DE900502DE9FF1F4FF000032DE90C0027
:1013C80001AAFFF747FCDDF840E012B0704700BF04
:1013D800027A03467AB9427AA2B14168013A10B456
:1013E8004272086803220C1D1A7202025C60000E29
:1013F80010BC1A6070470068013A1A7202021A603B
:10140800000E7047B020704700B585B0002303AACE
:10141800009219460C22FFF7D3FB039805B05DF83C
:1014280004FB00BFF0E700BF2DE9F043064685B096
:101438000D464FF000082846FFF7CAFFB0280446BB
:1014480000F0DA80070646D500F0F003802B5ED066
:10145800B02B73D01BD8902B00F09B80A02B12D1FF
:10146800C34303F007034FF47F621A41010702F4F4
:101478007F6201D542F48042002319463046FFF7C7
:101488007DFD0028D7D0092005B0BDE8F083C02B2A
:101498006DD1C62800F09380C72800F0B28000F014
:1014A800F803C02B00F0D280C82800F0DD80C928DE
:1014B800E9D12846FFF78CFF020300F00F0002F481
:1014C800702201300243012105233046FFF756FD03
:1014D8000028B0D0D7E78300DBB21F1D0DF10C093F
:1014E80000231946CDF800900D223046FFF768FB1F
:1014F800039BCDF8009060064CBFDF1BFF1800234C
:101508000D22194630460397FFF780FB93E72846DC
:10151800FFF75EFF24022043B0F5004FB3D004016B
:101528000023A2B219463046FFF728FD0028AAD1A9
:1015380014F4004F18BF4FF001087CE7B12851D0D0
:10154800B22800F0AD80B3286DD000F0FC03B42BB6
:1015580099D000F007020132012342F40022194613
:101568003046FFF70BFD00283FF465AF8BE700F02E
:10157800F803D02B87D100F007020132052342F48B
:10158800002201213046FFF7F9FC00283FF453AF51
:1015980079E700F00D030D2B3FF475AF03AF00237F
:1015A80000F00F02194600973046FFF709FB0023A9
:1015B80000970D2219463046FFF728FB3BE72846DF
:1015C800FFF706FF020300F00F00013002F470225B
:1015D8000323024319463046FFF7D0FC00283FF4A6
:1015E8002AAF50E72846FFF7F3FE431EDBB20E2B67
:1015F80002467FF641AF46E7B8F1000F40D0002021
:1016080042E72846FFF7E4FE431EDBB20E2B0246F4
:101618003FF639AF002304213046FFF7AFFC00281E
:101628003FF409AF2FE72846FFF7D2FE020300F088
:101638000F00013002F4702201230243194630469C
:10164800FFF79CFC00283FF4F6AE1CE700F00F0201
:101658000132032342F4202219463046FFF78EFC5C
:1016680000283FF4E8AE0EE72846FFF7B1FE00F089
:10167800F00200F00F031032013343EA023222E78E
:1016880003AC434641460E2200943046FFF798FAD1
:10169800009443460F2241463046FFF7B7FAAEE7BB
:1016A80000230DF10C090D221946CDF800903046A3
:1016B800FFF786FA2846FFF78BFE0206039C4FF0D9
:1016C80002070BD500F07F00B84004442846039475
:1016D800FFF77EFE030607F10707F3D400FA07F2C7
:1016E80004F50174224400230392CDF800900D22E2
:1016F80019463046FFF78AFA9DE600BF10B5C26C5E
:10170800536884B04FF0030C08321C0208461B0EC5
:1017180001A9019402928DF80CC08DF80D30FFF7E5
:1017280083FE04B010BD00BF08B5FFF77BFE806CD8
:1017380008BD00BF08B5FFF775FEC06CC37902335A
:1017480000EB830008BD00BF704700BFF0B589B04B
:1017580000240394049405940694079400941F4B62
:101768001A6B42F002021A631A6B02F0020200922C
:10177800009A01941A6B42F001021A631A6B02F084
:1017880001020192019A02941A6B42F080021A63D4
:101798001B6B03F080030293029B114F224610211A
:1017A800384600F0A9FC0F4E22460121304600F0D1
:1017B800A3FC10230393012504950594069403A91B
:1017C800384600F09FFB039504950594069403A9F9
:1017D800304600F097FB09B0F0BD00BF003802406A
:1017E80000000240000402400122027600224276F4
:1017F8007047000008B500221021024800F07CFC68
:1018080008BD00BF0000024008B5012210210248AF
:1018180000F072FC08BD00BF0000024008B50022BD
:101828000121024800F068FC08BD00BF0004024026
:1018380008B501221146024800F05EFC08BD00BF51
:101848000004024030B583B0044615468DF80410F4
:101858008DF80520FFF7CEFF4FF47A73022201A915
:10186800044801F098F82046FFF7CEFF257603B02C
:1018780030BD00BF8401002010B50446FFF7BAFF51
:10188800B6227E212046FFF7DDFF012000F0BCFADA
:101898002046FFF7B9FF2046FFF7C0FFB622142104
:1018A8002046FFF7CFFF1E2000F0AEFA2046FFF7D4
:1018B800BFFF2046FFF79EFF012000F0A5FA042293
:1018C8007D212046FFF7BEFF012000F09DFA20464B
:1018D800FFF79AFF10BD00002DE9F04383B00446DE
:1018E80092238DF80730FFF785FF2E4E4FF47A7359
:1018F80001220DF10701304601F04DF82A4D4FF451
:101908007A7307222946304601F051FA2046FFF73C
:101918007BFFAB78687840EA032000B2234B18803D
:101928002B79EE7846EA032636B2214B1E80AB7936
:101938006D7945EA03252DB21E4B1D80237E43B1E8
:10194800012B29D0022B2AD0032B04D1DFF8689071
:1019580001E0DFF86890FEF7A1FD4946FEF730FC8C
:101968000746DFF85C80C8F800003046FEF796FDB1
:101978004946FEF725FC0646C8F804002846FEF747
:101988008DFD4946FEF71CFCC8F808002760666014
:10199800A06003B0BDE8F083DFF82890DBE7DFF84C
:1019A8002890D8E7840100207C01002072010020E3
:1019B800700100206E0100200A35EB3B0A356B3AB6
:1019C8005C0100200A35EB3A0A356B3B2DE9F04300
:1019D80083B0044682238DF80730FFF71FFF304E8F
:1019E8004FF47A7301220DF10701304600F0D3FF5E
:1019F8002C4D4FF47A7306222946304601F0D7F968
:101A08002046FFF715FF6B78287840EA032000B2DC
:101A1800254B1880EB78AE7846EA032636B2234B7E
:101A28001E806B792D7945EA03252DB2204B1D8048
:101A3800637E7BB1013B032B0ED8DFE803F02E0257
:101A48000508DFF8709007E0DFF86C9004E0DFF835
:101A58006C9001E0DFF86890FEF720FD4946FEF73C
:101A6800AFFB0746DFF85C80C8F800003046FEF799
:101A780015FD4946FEF7A4FB0646C8F804002846AB
:101A8800FEF70CFD4946FEF79BFBC8F80800E76027
:101A98002661606103B0BDE8F083DFF82C90DBE7D6
:101AA80084010020740100206C0100206A010020DC
:101AB80068010020DAAC7A3C6C09F93B6C09793B87
:101AC80023DB793D5001002023DBF93C72B6FEE7A9
:101AD80000B595B03022002108A801F033FA0023A0
:101AE8000393049305930693079301931F4A116C7C
:101AF80041F080511164126C02F080520192019AF7
:101B080002931B4A116841F480411160126802F483
:101B180080420292029A0222089201210B9110211E
:101B28000C910E920F9308231093A82311931292ED
:101B38000423139308A800F0E5FA98B90F23039338
:101B480002230493002305934FF4A05306934FF404
:101B580080530793052103A800F024FD20B915B090
:101B68005DF804FBFFF7B2FFFFF7B0FF0038024053
:101B78000070004000B589B000F01AF9FFF7A8FF1F
:101B8800FFF7E4FD00F01AF801A8FFF72DFE01A801
:101B9800FFF772FE01221021074800F0ADFA032278
:101BA800412101A8FFF74EFE01A8FFF795FE01A805
:101BB800FFF70CFFF8E700BF0000024008B50F4828
:101BC8000F4B03604FF48273436000238360C3604C
:101BD80002220261012242614FF4007282613822BE
:101BE800C2610362436283620A23C36200F074FE27
:101BF80000B908BDFFF76AFFFBE700BF84010020BA
:101C080000300140F0B589B0002303930493059395
:101C18000693079302681E4B9A4201D009B0F0BDA3
:101C28000024009403F584335A6C42F480525A64B9
:101C38005A6C02F480520092009A01941A6B42F096
:101C480002021A631A6B02F002020192019A0294CC
:101C58001A6B42F001021A631B6B03F00103029333
:101C6800029B18230393022704970326069605254B
:101C7800079503A9074800F045F9802303930497C3
:101C880005940696079503A9034800F03BF9C5E7B4
:101C980000300140000402400000024082B00021F0
:101CA80000910B4B5A6C42F480425A645A6C02F40D
:101CB80080420092009A01911A6C42F080521A6494
:101CC8001B6C03F080530193019B02B0704700BF67
:101CD80000380240FEE7FEE7FEE7FEE7FEE7704752
:101CE8007047704708B500F07DF808BD01207047BF
:101CF80008B501F075F9162303604FF0FF3008BDF1
:101D080008B54FF0FF31FFF7F3FFFEE7704700001B
:101D1800DFF834D0FFF7FAFF0C480D490D4A0023CD
:101D280002E0D458C4500433C4188C42F9D30A4A88
:101D38000A4C002301E013600432A242FBD301F0F5
:101D480055F9FFF717FF7047000002200000002038
:101D580034010020B032000834010020B40400200F
:101D6800FEE7000010B504460E4B1A784FF47A735C
:101D7800B3FBF2F30C4A1068B0FBF3F000F0AEF8D6
:101D880068B90F2C01D901200AE0002221464FF042
:101D9800FF3000F093F8054B1C60002000E00120A4
:101DA80010BD00BF04000020000000200800002033
:101DB80008B50B4B1A6842F400721A601A6842F4AC
:101DC80080621A601A6842F480721A60032000F078
:101DD80063F80F20FFF7C6FFFFF760FF002008BD7C
:101DE800003C0240034A1168034B1B780B44136004
:101DF800704700BFDC01002004000020014B186878
:101E0800704700BFDC01002038B50446FFF7F6FF35
:101E18000546B4F1FF3F02D0044B1B781C44FFF782
:101E2800EDFF401BA042FAD338BD00BF04000020DC
:101E3800002808DB0901C9B200F1604000F56140E3
:101E480080F80013704700F00F000901C9B2014B78
:101E58001954704714ED00E000B500F00700C0F118
:101E6800070CBCF1040F28BF4FF0040C031D062B10
:101E78000FD9C31E4FF0FF3E0EFA0CF021EA000105
:101E880099400EFA03FE22EA0E0241EA02005DF8CA
:101E980004FB0023EEE70000074AD36823F4E0635D
:101EA8001B041B0C000200F4E060034343F0BF6313
:101EB80043F40033D360704700ED00E010B50446EA
:101EC800054BD868C0F30220FFF7C6FF014620463D
:101ED800FFF7AEFF10BD00BF00ED00E00138B0F124
:101EE800807F0BD24FF0E0235861054AF02182F839
:101EF80023100020986107221A617047012070475B
:101F080000ED00E000230F2B00F2EC8030B583B029
:101F180068E085684FEA430E032404FA0EF425EAC4
:101F28000405CC6804FA0EF42C438460446824EA5F
:101F380002044A68C2F300129A40224342605FE0FA
:101F4800DC08083450F8242003F00705AD004FF0F2
:101F58000F0E0EFA05FE22EA0E0E0A69AA4042EAA0
:101F68000E0240F824205FE0072200E0002202FA77
:101F78000EF22A4302345C4D45F824205B4A9468EB
:101F88006FEA0C0224EA0C05D1F804E01EF4801F65
:101F980001D04CEA0405554CA560E46802EA040542
:101FA800D1F804E01EF4001F01D04CEA04054F4CA0
:101FB800E560646802EA0405D1F804E01EF4003F15
:101FC80001D04CEA0405494C6560246822404D68FC
:101FD80015F4803F01D04CEA0402444C22600133DE
:101FE8000F2B7DD801229A400C6804EA020C32EAD1
:101FF8000404F4D14C6804F00304013C012C88D992
:102008004A6802F00302032A09D0C4685D0003226B
:10201800AA4024EA02048A68AA402243C2604A68A5
:1020280002F00302022A8BD004684FEA430E03220F
:1020380002FA0EF224EA02044A6802F0030202FAE3
:102048000EF2224302604A6812F4403FC7D00022D1
:102058000192274A546C44F480445464526C02F44C
:1020680080420192019A9C08A51C1F4A52F82550EB
:1020780003F0030E4FEA8E0E0F2202FA0EF225EA43
:1020880002051C4A90423FF471AF02F5806290420B
:102098001AD002F58062904218D002F58062904210
:1020A80016D002F58062904214D002F58062904208
:1020B80012D002F58062904210D002F58062904200
:1020C8003FF452AF082252E7012250E702224EE7BE
:1020D80003224CE704224AE7052248E7062246E79E
:1020E80003B030BD704700BF00380140003C0140DC
:1020F80000380240000002400AB1816170470904BB
:1021080081617047002800F0E08170B582B0044614
:10211800036813F0010F3BD09F4B9B6803F00C033F
:10212800042B2CD09C4B9B6803F00C03082B21D06C
:102138006368B3F5803F4FD0B3F5A02F52D0964BCC
:102148001A6822F480321A601A6822F480221A600F
:102158006368002B50D0FFF751FE05468E4B1B6875
:1021680013F4003F14D1FFF749FE401B6428F5D94A
:102178000320B1E1884B5B6813F4800FD8D0864BFD
:102188001B6813F4003F03D06368002B00F09F81A5
:10219800236813F0020F54D07F4B9B6813F00C0F89
:1021A8003ED07D4B9B6803F00C03082B33D0E368CB
:1021B800002B68D0794B01221A60FFF71FFE0546F5
:1021C800754B1B6813F0020F54D1FFF717FE401B25
:1021D8000228F5D903207FE16F4A136843F480335E
:1021E8001360B5E76C4B1A6842F480221A601A68CB
:1021F80042F480321A60ABE7FFF700FE0546664BF3
:102208001B6813F4003FC3D0FFF7F8FD401B642898
:10221800F5D9032060E1604B5B6813F4800FC6D1E9
:102228005D4B1B6813F0020F03D0E368012B40F0ED
:102238005081594A136823F0F803216943EAC1031E
:102248001360236813F0080F42D063696BB3534BD4
:102258000122C3F8802EFFF7D1FD05464E4B5B6F78
:1022680013F0020F34D1FFF7C9FD401B0228F5D93E
:10227800032031E1484A136823F0F803216943EA4F
:10228800C1031360DDE7454B00221A60FFF7B6FD76
:102298000546414B1B6813F0020FD2D0FFF7AEFD85
:1022A800401B0228F5D9032016E13C4B0022C3F855
:1022B800802EFFF7A3FD0546374B5B6F13F0020F27
:1022C80006D0FFF79BFD401B0228F5D9032003E148
:1022D800236813F0040F77D02F4B1B6C13F0805F2B
:1022E80033D1002301932C4B1A6C42F080521A64AC
:1022F8001B6C03F080530193019B0125284B1B683D
:1023080013F4807F23D0A368012B34D0052B38D059
:10231800214B1A6F22F001021A671A6F22F0040289
:102328001A67A368002B3DD0FFF768FD06461A4BD5
:102338001B6F13F0020F46D1FFF760FD801B41F2BF
:1023480088339842F3D90320C6E00025D6E7144A1B
:10235800136843F480731360FFF750FD0646104B73
:102368001B6813F4807FCED1FFF748FD801B02283D
:10237800F5D90320B0E0084A136F43F0010313674F
:10238800CFE7054B1A6F42F004021A671A6F42F042
:1023980001021A67C5E700BF003802400000474243
:1023A80000700040FFF72AFD0646524B1B6F13F0E2
:1023B800020F08D0FFF722FD801B41F288339842B4
:1023C800F3D9032088E0EDB9A369002B00F08380DE
:1023D800484A926802F00C02082A51D0022B17D002
:1023E800454B00221A66FFF709FD0446414B1B685E
:1023F80013F0007F42D0FFF701FD001B0228F5D93A
:10240800032069E03B4A136C23F080531364DBE735
:10241800394B00221A66FFF7F1FC0546354B1B685D
:1024280013F0007F06D0FFF7E9FC401B0228F5D91E
:10243800032051E0E369226A1343626A43EA821384
:10244800A26A5208013A43EA0243E26A43EA026393
:10245800284A5360284B01221A66FFF7CFFC04462E
:10246800244B1B6813F0007F06D1FFF7C7FC001B45
:102478000228F5D903202FE000202DE000202BE0D2
:10248800012B2BD01B4B5B6803F48001E26991425E
:1024980026D103F03F02216A8A4223D1616A47F6B6
:1024A800C0721A40B2EB811F1ED103F44031A26AF8
:1024B8005208013AB1EB024F18D103F07063E26A97
:1024C800B3EB026F14D1002006E001207047012011
:1024D80002E0012000E0002002B070BD0120FBE70F
:1024E8000120F9E70120F7E70120F5E70120F3E7EC
:1024F8000120F1E7003802400000474208B5264BAA
:102508009B6803F00C03042B41D0082B41D1224BCC
:102518005A6802F03F025B6813F4800F12D01E4B1A
:102528005968C1F388111D480023A1FB0001FEF77B
:1025380009F8194B5B68C3F3014301335B00B0FB37
:10254800F3F027E0144B5868C0F388104FEA401C9A
:10255800BCEB000C6EEB0E0E4FEA8E1343EA9C6345
:102568004FEA8C11B1EB0C0163EB0E03DB0043EA7D
:102578005173C90011EB000C43F1000399020023C9
:102588004FEA8C2041EA9C51FDF7DCFFD1E7034874
:1025980000E0034808BD00BF00380240001BB70038
:1025A8000024F400002800F09B8070B50D46044616
:1025B8004F4B1B6803F007038B4208D2CBB24C4A3F
:1025C8001370136803F007038B4240F08B80236875
:1025D80013F0020F17D013F0040F04D0454A936884
:1025E80043F4E0539360236813F0080F04D0414A82
:1025F800936843F4604393603E4A936823F0F00382
:10260800A1680B439360236813F0010F32D063680D
:10261800012B21D09A1E012A25D9364A126812F0B8
:10262800020F61D033498A6822F0030213438B609A
:10263800FFF7E4FB06462F4B9B6803F00C03626828
:10264800B3EB820F16D0FFF7D9FB801B41F288331A
:102658009842F0D9032042E0264A126812F4003F5B
:10266800E0D101203BE0234A126812F0007FD9D163
:10267800012034E01E4B1B6803F00703AB4207D967
:10268800EAB21B4B1A701B6803F00703AB422DD14B
:10269800236813F0040F06D0164A936823F4E05316
:1026A800E1680B439360236813F0080F07D0114AC1
:1026B800936823F46043216943EAC1039360FFF7F9
:1026C8001DFF0C4B9B68C3F303130B4AD35CD84024
:1026D8000A4B18600A4B1868FFF744FB002070BDCE
:1026E800012070470120FAE70120F8E70120F6E70A
:1026F800003C0240003802403C3100080000002045
:10270800080000202DE9F04782B0054688461746A4
:102718001E46FFF773FB0A9B1B1A03EB0609FFF71C
:102728006DFB8246284B1B68C3F3CB3309FB03F3CD
:1027380001932B689C6838EA04040CBF012300232A
:10274800BB423DD0B6F1FF3FF3D0FFF757FBA0EBFC
:102758000A00484507D2019A02B14A46019B013B4B
:1027680001939146E5E72A68536823F0E003536034
:102778006B68B3F5827F0BD0AB6AB3F5005F14D0FA
:10278800012385F85130002385F85030032018E0E4
:10279800AB68B3F5004F02D0B3F5806FECD12A686F
:1027A800136823F040031360E6E72A68136823F4EC
:1027B800005313602A68136843F400531360DFE77B
:1027C800002002B0BDE8F0870000002070B584B09A
:1027D80004460D46164600920B4601220221FFF7D9
:1027E80091FFD0B9174B1B68174AA2FB03235B0D57
:1027F8004FF47A7202FB03F303936368B3F5827FA5
:1028080011D0039B3BB1039B013B039323689B6857
:1028180013F0800FF5D104B070BD636D43F0200351
:1028280063650320F7E700962B46002280212046A7
:10283800FFF768FF0028EED0636D43F0200363655F
:102848000320E8E700000020819F5E1610B582B0E3
:1028580004460B464168B1F5827F14D06168B1F532
:10286800827F2AD1A168B1F5806F19D00092002229
:1028780080212046FFF746FF30B3636D43F0200305
:102888006365032020E08168B1F5004F02D0B1F5FF
:10289800806FE3D12068016821F040010160DDE725
:1028A8000092002201212046FFF72CFF60B1636DE2
:1028B80043F020036365032006E000920022012113
:1028C8002046FFF71FFF08B902B010BD636D43F043
:1028D800200363650320F7E700285AD010B50446A3
:1028E800436A33B94368B3F5827F05D00023C361D7
:1028F80002E00023036143610023A36294F851308E
:10290800002B40D0022384F851302268136823F04A
:1029180040031360636803F48273A26802F40442FC
:102928001343E26802F400621343226902F00202D0
:102938001343626902F001021343A26902F40072B0
:102948001343E26902F038021343226A02F080025C
:102958001343A26A02F40052216813430B60638B8D
:1029680003F00403626A02F01002216813434B600B
:102978002268D36923F40063D361002060650123D2
:1029880084F8513010BD84F850302046FFF73AF9EA
:10299800B8E7012070472DE9F04383B00446894623
:1029A80090461D46FFF72AFA94F85160F6B2012EB8
:1029B80040F0CC800746B9F1000F00F0C880B8F1AC
:1029C800000F00F0C48094F85030012B00F0C38051
:1029D800012384F85030032384F8513000236365C1
:1029E800C4F83090A4F83480A4F83680A363A38791
:1029F800E38763642364A368B3F5004F1ED023689C
:102A08001A6812F0400F03D11A6842F040021A60A7
:102A1800E368B3F5006F1CD0636813B1B8F1010F18
:102A28005FD1226B236812781A73236B01332363F7
:102A3800E38E9BB2013B9BB2E38652E022681368A7
:102A480023F0400313602268136843F48043136043
:102A5800D5E7636813B1B8F1010F15D1226B23686C
:102A68001288DA60236B02332363E38E9BB2013B47
:102A78009BB2E38608E0FFF7C1F9C01BA84202D366
:102A8800B5F1FF3F15D1A5B1E38E9BB2002B42D023
:102A980023689A6812F0020FEDD0226B1288DA6070
:102AA800236B02332363E38E9BB2013B9BB2E38625
:102AB800EAE7012384F85130002384F850300326D4
:102AC80045E0226B12781A73236B01332363B4F841
:102AD80036C01FFA8CFC0CF1FF3C1FFA8CFCA4F8E2
:102AE80036C0E38E9BB2B3B123689A6812F0020F26
:102AF800E7D1FFF783F9C01BA84202D3B5F1FF3F26
:102B080001D1002DEDD1012384F85130002384F840
:102B1800503003261BE03A4629462046FFF756FE6A
:102B280008B120236365A36833B901932368DA6881
:102B380001929B680193019B012384F85130002383
:102B480084F85030636D13B9002600E00226304641
:102B580003B0BDE8F0830226F9E72DE9F04383B01E
:102B68000446884691461F460A9DFFF747F90646E0
:102B780094F85130DBB26268012B0AD0B2F5827F3B
:102B880040F00581A268002A40F00581042B40F03E
:102B98000481B8F1000F00F00281B9F1000F00F0D4
:102BA8000081002F00F0FF8094F85030012B00F0D6
:102BB800FC80012384F8503094F85130DBB2042BA8
:102BC80002D0052384F8513000236365C4F8389097
:102BD800E787A787C4F83080E786A78623646364FD
:102BE80023681A6812F0400F03D11A6842F04002B5
:102BF8001A60E368B3F5006F11D063680BB1012F59
:102C08000BD1226B236812781A73236B0133236369
:102C1800E38E9BB2013B9BB2E386012771E06368B8
:102C28000BB1012F0BD1226B23681288DA60236B5A
:102C380002332363E38E9BB2013B9BB2E3860127F9
:102C48001BE023689A6812F0010F0ED0E28F92B24F
:102C58005AB1DA68A36B1A80A36B0233A363E38FBC
:102C68009BB2013B9BB2E3870127FFF7C7F8801BA4
:102C7800A84202D3B5F1FF3F1ED1E38E9BB21BB928
:102C8800E38F9BB2002B62D023689A6812F0020F80
:102C9800D7D0E28E92B2002AD3D0002FD1D0226BA7
:102CA8001288DA60236B02332363E38E9BB2013B05
:102CB8009BB2E3860027C4E7012384F85130002340
:102CC80084F85030032063E023689A6812F0010FFB
:102CD8000ED0E28F92B25AB1DA68A36B1A70A36B66
:102CE8000133A363E38F9BB2013B9BB2E3870127C8
:102CF800FFF784F8831BAB4202D3B5F1FF3F1ED127
:102D0800EDB1E38E9BB213B9E38F9BB2FBB123689D
:102D18009A6812F0020FD7D0E28E92B2002AD3D06E
:102D2800002FD1D0226B12781A73236B01332363DF
:102D3800E38E9BB2013B9BB2E3860027C4E70123E5
:102D480084F85130002384F85030032020E03246C4
:102D580029462046FFF73AFD90B9A36833B9019395
:102D68002368DA6801929B680193019B012384F828
:102D78005130002384F85030636D4BB1012007E0D7
:102D880020236365002384F85030012000E00220EE
:102D980003B0BDE8F0830220FAE70220F8E701203B
:102DA800F6E70120F4E70120F2E70220F0E72DE939
:102DB800F04383B090F85160F6B2012E40F0B48031
:102DC8000446894690461D464368B3F5827F01D183
:102DD800836893B3FFF712F80746B9F1000F00F0C4
:102DE800A480B8F1000F00F0A08094F85030012BB7
:102DF80000F09F80012384F85030042384F8513078
:102E080000236365C4F83890A4F83C80A4F83E8099
:102E18002363A386E38623646364A368B3F5004F42
:102E280015D023681A6812F0400F03D11A6842F0CF
:102E380040021A60E368F3B143E0042380F851309C
:102E4800009513460A46FFF788FE06466DE022689D
:102E5800136823F0400313602268136823F4804347
:102E68001360DEE7FEF7CAFFC01BA84202D3B5F124
:102E7800FF3F15D1A5B1E38F9BB2002B42D0236849
:102E88009A6812F0010FEDD0A26B1B7B1370A36B35
:102E98000133A363E38F9BB2013B9BB2E387EAE76D
:102EA800012384F85130002384F8503003263CE095
:102EB800FEF7A4FFC01BA84202D3B5F1FF3F19D10A
:102EC800C5B1E38F9BB2EBB123689A6812F0010F8A
:102ED800EED0DA68A36B1A80A36B0233A363B4F84D
:102EE8003EC01FFA8CFC0CF1FF3C1FFA8CFCA4F8C6
:102EF8003EC0E6E7012384F85130002384F85030BF
:102F0800032612E03A4629462046FFF79FFC08B1FF
:102F180020236365012384F85130002384F850305E
:102F2800636D13B9002600E00226304603B0BDE801
:102F3800F0830226F9E708B5062000F035F80120ED
:102F4800FEF7DEFE02440346934200D1704703F8C1
:102F5800011BF9E71F2938B505460C4604D9162385
:102F680003604FF0FF3038BDD0F8182112B152F885
:102F780021304BB9284600F031F822460146284650
:102F8800BDE8384000F018B8012B0AD0591C03D10D
:102F9800162303600120E6E7002142F824102046AA
:102FA80098470020DFE70000024B01461868FFF74A
:102FB800D1BF00BF0C00002038B5074D00230446E0
:102FC800084611462B60FEF793FE431C02D12B687E
:102FD80003B1236038BD00BF18030020FEF786BE8A
:102FE800014B1868704700BF0C00002070B50D4DEC
:102FF8000D4C641BA4100026A64209D10B4D0C4CA5
:1030080000F08CF8641BA4100026A64205D170BD00
:1030180055F8043B98470136EEE755F8043B9847C6
:103028000136F2E7A4320008A4320008A4320008EE
:10303800AC320008704770470A44914200F1FF33F0
:1030480000D1704710B511F8014B03F8014F9142B8
:10305800F9D110BD024B13B1024800F005B8704712
:10306800000000007D300008002301461A4618467B
:1030780000F014B838B5074D074C641BA4101CB9F0
:10308800BDE8384000F050B8013C55F82430984766
:10309800F5E700BFAC320008B03200082DE9F04770
:1030A800DFF86CA00646DAF8000098460F4691460D
:1030B800FFF7C0FF174B1C680CB9174C1C606568FC
:1030C800DAF800001F2D05DDFFF7B5FF4FF0FF30E0
:1030D800BDE8F0879EB104EB85010122C1F8889014
:1030E800D4F88831AA401343C4F88831022EC1F8B5
:1030F800088102BFD4F88C311343C4F88C316B1C9F
:103108000235636044F82570FFF795FF0020DFE77C
:10311800300100202003002024030020F8B500BF60
:10312800F8BC08BC9E467047F8B500BFF8BC08BCA0
:043138009E467047F8
:10313C00000000000000000001020304060708095B
:10314C0008B10181B0B000840000000008B1018119
:10315C00B0B000840000000008B10181B0B0008460
:10316C000000000008B10181B0B000840000000034
:10317C0008B10181B0B000840000000008B10181E9
:08318C00B0B000840000000057
:10319400E8D3FF7F010000003CD7FF7FB0A9028085
:1031A400C8D7FF7FB0B0A88018D8FF7F0100000007
:1031B40024D8FF7FB0B0AA8058D8FF7FAE71B28008
:1031C40024D9FF7F0100000020D9FF7FAB3F388066
:1031D40080D9FF7F0100000088D9FF7FB0B0AA80AA
:1031E400C4D9FF7F0100000070DAFF7FAA0DB2800E
:1031F400ECDAFF7FB0AF08807CDDFF7F01000000C8
:1032040080DDFF7FAD3F028020E0FF7F01000000F2
:10321400FCE1FF7F0084048010E2FF7F01000000D6
:103224000CE2FF7FB0AD0480D8E4FF7FB0A8038038
:10323400FCE4FF7F44FFFF7F00E5FF7F48FFFF7F43
:103244000CE5FF7F01000000B0E5FF7FFCFEFF7F7F
:10325400BCE5FF7F00FFFF7FC8E5FF7F04FFFF7F22
:10326400D4E5FF7F08FFFF7FE0E5FF7FB0A9028080
:103274000CE6FF7FB0B0A88064E6FF7FB0AD0280AB
:1032840050E8FF7F010000004CE8FF7F00841480B9
:10329400E8E8FF7F0084088028E9FF7F0100000040
:0832A4005D300008AD010008D7
:0432AC00890100088C
:1032B0000024F400010000001000000010000020B5
:1032C00000000000E001002048020020B0020020C1
:1032D00000000000000000000000000000000000EE
:1032E00000000000000000000000000000000000DE
:1032F00000000000000000000000000000000000CE
:1033000000000000000000000000000000000000BD
:1033100000000000000000000000000000000000AD
:10332000000000000000000000000000000000009D
:10333000000000000000000000000000000000008D
:10334000000000000000000000000000000000007D
:10335000000000000000000001000000000000006C
:103360000E33CDAB34126DE6ECDE05000B00000031
:10337000000000000000000000000000000000004D
:10338000000000000000000000000000000000003D
:10339000000000000000000000000000000000002D
:1033A000000000000000000000000000000000001D
:1033B000000000000000000000000000000000000D
:1033C00000000000000000000000000000000000FD
:1033D00000000000000000000000000000000000ED
:0433E0001C030020AA
:0400000508001D19B9
:00000001FF
