:020000040800F2
:1000000000800020DD020008C1020008C3020008D1
:10001000C5020008C7020008C9020008000000006D
:10002000000000000000000000000000CB020008FB
:10003000CD02000800000000CF020008D102000835
:100040002D0300082D0300082D0300082D030008D0
:100050002D0300082D0300082D0300082D030008C0
:100060002D0300082D0300082D0300082D030008B0
:100070002D0300082D0300082D0300082D030008A0
:100080002D030008000000002D0300082D030008C8
:100090002D0300082D0300082D0300082D03000880
:1000A0002D0300082D0300082D0300082D03000870
:1000B0002D0300082D0300082D0300082D03000860
:1000C0002D0300082D0300082D0300082D03000850
:1000D0002D0300082D0300082D0300082D03000840
:1000E0002D0300082D0300082D0300082D03000830
:1000F0002D0300082D0300082D0300080000000058
:10010000000000002D030008000000002D0300087F
:100110002D030008000000002D0300082D03000837
:100120002D0300082D0300082D0300082D030008EF
:100130002D03000800000000000000002D0300084F
:100140002D0300082D03000800000000000000003F
:10015000000000000000000000000000000000009F
:100160000000000000000000000000002D03000857
:100170002D03000800000000000000000000000047
:10018000000000002D030008000000000000000037
:10019000000000000000000000000000000000005F
:1001A00000000000000000002D0300082D030008DF
:1001B0002D0300082D0300082D0300080000000097
:1001C000000000002D0300080000000000000000F7
:0801D0002D0300082D030008B7
:1001D80010B5054C237833B9044B13B10448AFF379
:1001E80000800123237010BD1000002000000000D3
:1001F800940E000808B5034B1BB103490348AFF33D
:10020800008008BD0000000014000020940E0008C3
:1002180072B6FEE710B594B03822002106A800F0A7
:10022800A3FD0024019402940394049405944FF4CC
:10023800007000F02DF9022306934FF480730993A0
:1002480040230A930D9406A800F0DCF968B90F233F
:10025800019301230293002103910491059101A8C0
:1002680000F086FC18B914B010BDFFF7D1FFFFF7F6
:10027800CFFF08B500F080F8FFF7CCFFFEE70000DD
:1002880000B583B00B4B1A6E42F001021A661A6E63
:1002980002F001020092009A9A6D42F080529A652B
:1002A8009B6D03F080530193019B00F077F903B035
:1002B8005DF804FB00100240FEE7FEE7FEE7FEE7FC
:1002C800FEE770477047704708B500F065F808BD4D
:1002D800704700000D488546FFF7FAFF0C480D49A6
:1002E8000D4A002302E0D458C4500433C4188C4289
:1002F800F9D30A4A0A4C002301E013600432A242EF
:10030800FBD300F039FDFFF7B4FFFEE700800020C3
:100318000000002010000020C80E00081000002077
:10032800C8010020FEE70000104B1B680BB9012034
:10033800704710B504464FF47A70B0FBF3F30C4ADB
:100348001068B0FBF3F000F08FF868B90F2C01D9F2
:1003580001200AE0002221464FF0FF3000F074F837
:10036800044B1C60002000E0012010BD04000020A8
:10037800000000200800002010B5032000F052F80B
:100388000F20FFF7D1FF10B10124204610BD04460D
:10039800FFF776FFF9E70000034A13680349096885
:1003A8000B441360704700BF2C000020040000209D
:1003B800014B1868704700BF2C000020002808DB9C
:1003C8000901C9B200F1604000F5614080F80013EE
:1003D800704700F00F000901C9B2014B195470476A
:1003E80014ED00E000B500F00700C0F1070CBCF107
:1003F800040F28BF4FF0040C031D062B0FD9C31E92
:100408004FF0FF3E0EFA0CF021EA000199400EFA77
:1004180003FE22EA0E0241EA02005DF804FB002313
:10042800EEE70000074AD36823F4E0631B041B0CC3
:10043800000200F4E060034343F0BF6343F4003379
:10044800D360704700ED00E010B50446054BD8684E
:10045800C0F30220FFF7C6FF01462046FFF7AEFFB4
:1004680010BD00BF00ED00E00138B0F1807F0BD275
:100478004FF0E0235861054AF02182F8231000204C
:10048800986107221A6170470120704700ED00E06B
:10049800002836D13E4B1B6803F4C063B3F5806F68
:1004A80008D03B4AD2F8803023F48073C2F88030F9
:1004B80000207047364AD2F8803023F48073C2F89F
:1004C8008030136823F4C06343F400731360314B26
:1004D8001B68322202FB03F32F4AA2FB03239B0C67
:1004E800013300E0013B2A4A526912F4806F01D0BF
:1004F800002BF7D1264B5B6913F4806F44D10020A1
:100508007047B0F5007F08D0214A136823F4C06310
:1005180043F480631360002070471D4B1B6803F48D
:10052800C063B3F5806F08D0194AD2F8803043F41D
:100538008073C2F8803000207047154AD2F88030A6
:1005480043F48073C2F88030136823F4C06343F423
:10055800007313600F4B1B68322202FB03F30E4A31
:10056800A2FB03239B0C013300E0013B084A5269BC
:1005780012F4806F01D0002BF7D1054B5B6913F49F
:10058800806F03D100207047032070470320704715
:10059800007000400000002083DE1B43024A93687D
:1005A80043F480439360704700700040124BDA6850
:1005B80002F00302DB68C3F303130133032A11D0EB
:1005C8000E48B0FBF3F00C4BDB68C3F3062303FBC8
:1005D80000F0094BDB68C3F3416301335B00B0FBF8
:1005E800F3F070470648B0FBF3F0034BDB68C3F346
:1005F800062303FB00F0ECE7001002400024F4009F
:1006080000127A00002800F04F8270B582B00446CC
:10061800036813F0010F37D0A44A936803F00C0362
:10062800D26802F003020C2B23D0082B23D0636876
:10063800B3F5803F4ED0B3F5A02F51D09B4B1A682D
:1006480022F480321A601A6822F480221A606368E1
:10065800002B52D0FFF7ACFE0546944B1B6813F4F1
:10066800003F11D1FFF7A4FE401B6428F5D90320F1
:1006780023E2032AD9D18D4B1B6813F4003F03D022
:100688006368002B00F01282236813F0020F5DD01C
:10069800864A936803F00C03D26802F003020C2B1D
:1006A8003AD0042B3AD0E368002B75D07F4A136800
:1006B80043F480731360FFF77BFE05467B4B1B6892
:1006C80013F4806F5FD1FFF773FE401B0228F5D942
:1006D8000320F2E1754A136843F480331360B6E7E8
:1006E80003F18043A3F53C331A6842F480221A6070
:1006F8001A6842F480321A60A9E7FFF759FE0546E6
:100708006A4B1B6813F4003FBED0FFF751FE401B35
:100718006428F5D90320D0E1022AC2D1634B1B68B3
:1007280013F4806F03D0E368002B00F0C1815F4AA7
:10073800536823F0FE43216943EA016353605C4B2D
:100748001868FFF7F1FD002840F0B481236813F022
:10075800080F4CD063699BB3544AD2F8943043F0E5
:100768000103C2F89430FFF723FE05464F4BD3F838
:10077800943013F0020F3AD1FFF71AFE401B0228FB
:10078800F4D9032099E1494A536823F0FE432169CB
:1007980043EA01635360D9E7444A136823F480733A
:1007A8001360FFF705FE0546404B1B6813F4806F86
:1007B800CCD0FFF7FDFD401B0228F5D903207CE1D2
:1007C8003A4AD2F8943023F00103C2F89430FFF784
:1007D800EFFD0546354BD3F8943013F0020F06D0E1
:1007E800FFF7E6FD401B0228F4D9032065E12368E2
:1007F80013F0040F00F081802C4B9B6D13F0805F89
:1008080036D12A4B9A6D42F080529A659B6D03F05F
:1008180080530193019B0125264B1B6813F4807FAD
:1008280028D0A368012B39D0052B45D01F4BD3F80E
:10083800902022F00102C3F89020D3F8902022F0F3
:100848000402C3F89020A368002B43D0FFF7B0FD43
:100858000646164BD3F8903013F0020F4CD1FFF731
:10086800A7FD801B41F288339842F2D9032024E186
:100878000025D1E70F4A136843F480731360FFF72C
:1008880097FD06460B4B1B6813F4807FC9D1FFF711
:100898008FFD801B0228F5D903200EE1034AD2F808
:1008A800903043F00103C2F89030CCE700100240CA
:1008B8000800002000700040884BD3F8902042F0D8
:1008C8000402C3F89020D3F8902042F00102C3F844
:1008D8009020B8E7FFF76CFD0646804BD3F89030C0
:1008E80013F0020F08D0FFF763FD801B41F2883335
:1008F8009842F2D90320E0E0E5B9236813F0200F0D
:1009080035D0A369E3B1754AD2F8983043F00103B2
:10091800C2F89830FFF74CFD0546704BD3F8983075
:1009280013F0020F23D1FFF743FD401B0228F4D92F
:100938000320C2E0694A936D23F080539365DCE796
:10094800664AD2F8983023F00103C2F89830FFF7CE
:100958002FFD0546614BD3F8983013F0020F06D0EF
:10096800FFF726FD401B0228F4D90320A5E0E36920
:10097800002B00F0A180594A926802F00C020C2A60
:1009880064D0022B13D0554A136823F08073136088
:10099800FFF70EFD0446514B1B6813F0007F4ED045
:1009A800FFF706FD001B0228F5D9032085E04B4A16
:1009B800136823F080731360FFF7FAFC0546474B72
:1009C8001B6813F0007F06D0FFF7F2FC401B0228DB
:1009D800F5D9032071E0414AD36841491940236A97
:1009E800606A013843EA0013A06A43EA0023206BD7
:1009F8004008013843EA4053606B4008013843EA35
:100A08004063E06A43EAC0631943D160136843F066
:100A180080731360D36843F08073D360FFF7C8FC1A
:100A280004462E4B1B6813F0007F06D1FFF7C0FC6D
:100A3800001B0228F5D903203FE000203DE0274AAB
:100A4800D168284B0B40D360002036E0012B36D00C
:100A5800224BDB6803F00301226A914231D103F093
:100A6800F002616A0139B2EB011F2CD103F4FE4296
:100A7800A16AB2EB012F28D103F07842E16AB2EB08
:100A8800C16F24D103F4C001226B5208013AB1EBC3
:100A9800425F1ED103F0C063626B5208013AB3EBA8
:100AA800426F18D1002008E001207047012004E0BF
:100AB800012002E0012000E0002002B070BD01200A
:100AC800FBE70120F9E70120F7E70120F5E701201E
:100AD800F3E70120F1E70120EFE700BF0010024033
:100AE8000C809F01FCFFEEFE1E4B9B6803F00C037D
:100AF800042B33D01B4B9B6803F00C03082B2FD01F
:100B0800184B9B6803F00C030C2B01D00020704796
:100B1800144BDA6802F00302DB68C3F303130133F2
:100B2800032A11D01048B0FBF3F00E4BDB68C3F377
:100B3800062303FB00F00B4BDB68C3F3416301336F
:100B48005B00B0FBF3F070470848B0FBF3F0054BCF
:100B5800DB68C3F3062303FB00F0ECE702487047A9
:100B680002487047001002400024F40000127A0086
:100B7800002800F0E680F8B50C460546744B1B6863
:100B880003F00F038B420BD2714A136823F00F0353
:100B98000B431360136803F00F038B4240F0D380BC
:100BA8002E6816F001065FD06B68032B2FD0022B3E
:100BB8004DD0684B1B6813F4806F00F0C680FFF7B8
:100BC80093FF654B98424DD9624A936823F0F0032E
:100BD80043F08003936080265E4A936823F0030302
:100BE80069680B439360FFF7E3FB0746594B9B6823
:100BF80003F00C036A68B3EB820F35D0FFF7D8FB1C
:100C0800C01B41F288339842F0D9032078E0514B59
:100C18001B6813F0007F01D1012071E0FFF7C6FCCB
:100C28004D4B98421AD94B4B9B6813F0F00F05D0E7
:100C38002E6816F00206CFD0AB688BB9454A936888
:100C480023F0F00343F0800393608026C4E7414B10
:100C58001B6813F4003FB2D1012051E00026BBE726
:100C68000026B9E70026B7E72B6813F0020F48D033
:100C780013F0040F04D0374A936843F4E063936099
:100C88002B6813F0080F06D0324A936823F47C537C
:100C980043F4E06393602F4A936823F0F003A96854
:100CA8000B4393602A4B1B6803F00F03A34230D811
:100CB8002B6813F0040F06D0264A936823F4E063E8
:100CC800E9680B4393602B6813F0080F07D0214A9B
:100CD800936823F46053296943EAC1039360FFF7DB
:100CE80003FF1C4B9B68C3F303131C4AD35C03F03C
:100CF8001F03D8401A4B18601A4B1868FFF714FBEB
:100D0800F8BD802ECED1134A936823F0F003936088
:100D1800C8E70F4A136823F00F0323431360FFF754
:100D280047FB06460A4B1B6803F00F03A342BFD0DC
:100D3800FFF73EFB801B41F288339842F2D903202B
:100D4800DEE7012070470120DAE70120D8E700BF7D
:100D5800002002400010024000B4C404AC0E000899
:100D6800000000200800002002440346934200D1FE
:100D7800704703F8011BF9E770B50D4D0D4C641B66
:100D8800A4100026A64209D10B4D0C4C00F07EF8A9
:100D9800641BA4100026A64205D170BD55F8043B7B
:100DA80098470136EEE755F8043B98470136F2E7D5
:100DB800BC0E0008BC0E0008BC0E0008C40E0008DB
:100DC80070477047024B13B1024800F005B87047EE
:100DD80000000000ED0D0008002301461A461846E1
:100DE80000F014B838B5074D074C641BA4101CB9A3
:100DF800BDE8384000F050B8013C55F82430984719
:100E0800F5E700BFC40E0008C80E00082DE9F0473A
:100E1800DFF86CA00646DAF8000098460F469146BF
:100E2800FFF7CEFF174B1C680CB9174C1C606568A0
:100E3800DAF800001F2D05DDFFF7C3FF4FF0FF3084
:100E4800BDE8F0879EB104EB85010122C1F88890C6
:100E5800D4F88831AA401343C4F88831022EC1F867
:100E6800088102BFD4F88C311343C4F88C316B1C51
:100E78000235636044F82570FFF7A3FF0020DFE721
:100E88000C0000203400002038000020F8B500BF16
:100E9800F8BC08BC9E467047F8B500BFF8BC08BC53
:040EA8009E467047AB
:100EAC00000000000000000001020304060708090E
:080EBC00CD0D0008FD01000846
:040EC400D901000848
:100EC8000024F400010000001000000030000020A1
:04000005080002DD10
:00000001FF
