:020000040800F2
:10000000D80700204D02000815220008192000081A
:1000100011220008F90300085D2600080000000016
:100020000000000000000000000000001D22000889
:100030001504000800000000192200082122000811
:1000400067020008670200086702000867020008EC
:1000500067020008670200086702000867020008DC
:1000600067020008670200086702000867020008CC
:1000700067020008670200086702000867020008BC
:1000800067020008670200086702000867020008AC
:10009000FD03000867020008670200086702000805
:1000A000670200086702000867020008670200088C
:1000B000670200086702000867020008670200087C
:1000C000670200086702000867020008670200086C
:1000D000670200085126000867020008670200084E
:1000E000670200086702000867020008670200084C
:1000F000670200086702000867020008670200083C
:10010000670200086702000867020008670200082B
:100110006702000867020008F12200086702000871
:100120006702000867020008090400086702000867
:1001300067020008670200086702000867020008FB
:1001400067020008670200086702000867020008EB
:1001500067020008670200086702000867020008DB
:1001600067020008670200086702000867020008CB
:10017000670200086702000867020008000000002C
:1001800067020008670200084924000867020008A7
:10019000670200086702000867020008670200089B
:1001A00000000000000000006702000800F002F8F4
:1001B00000F03CF80AA090E8000C82448344AAF1C5
:1001C0000107DA4501D100F031F8AFF2090EBAE8C3
:1001D0000F0013F0010F18BFFB1A43F0010318477B
:1001E000E824000008250000103A24BF78C878C130
:1001F000FAD8520724BF30C830C144BF04680C602D
:10020000704700000023002400250026103A28BF74
:1002100078C1FBD8520728BF30C148BF0B60704778
:100220001FB502F034FA1FBD10B510BD00F0A9F8DB
:100230001146FFF7F5FF02F013FA00F0C7F803B418
:10024000FFF7F2FF03BC00F0CFF800000948804739
:1002500009480047FEE7FEE7FEE7FEE7FEE7FEE7A8
:10026000FEE7FEE7FEE7FEE704480549054A064BC0
:1002700070470000DD220008AD010008D801002011
:10028000D8070020D8030020D803002053EA020C2E
:1002900000F069802DE9F04B4FF00006002B1FBFE6
:1002A000B3FA83F503FA05F424FA05F65E4012BFAB
:1002B0001643B2FA82F502FA05F4C5F120051EBF15
:1002C00022FA05FC44EA0C04203556EA044C4FEAB5
:1002D000144418BF641C4FF000084FF0000990420E
:1002E00071EB030C39D3002919BFB1FA81F701FA78
:1002F00007F6B0FA80F700FA07F6C7F120071EBF2D
:1003000020FA07FC46EA0C062037B6FBF4FCA7EB04
:100310000507103F07F01F0BCBF120062CFA06F65D
:100320000CFA0BFB44BFB3460026202FA4BF5E4649
:100330004FF0000B5BEA060C08BF4FF0010B19EB06
:100340000B0948EB0608ABFB027C06FB02CC0BFB5F
:1003500003CCC01B71EB0C01C1E70B4602464146C2
:100360004846BDE8F08B13B5084318BF4FF0FF3087
:100370000146AFF30080BDE81C40704770477047EE
:100380007047754600F02CF8AE46050069465346A6
:1003900020F00700854618B020B5FFF765FFBDE8DF
:1003A00020404FF000064FF000074FF000084FF0DC
:1003B000000BAC46ACE8C009ACE8C009ACE8C00929
:1003C000ACE8C00921F007018D46704710B504461E
:1003D000AFF300802046BDE81040FFF730BF0000BB
:1003E000004870471000002001491820ABBEFEE70E
:1003F0002600020070470000FEE7000040F2700097
:10040000C2F2000000F00EB840F29800C2F2000004
:1004100000F062BA7047000072B600BFFEE700004D
:10042000704700002DE9F04F81B00446006846692E
:10043000D0F804908768D0F80CB0D0F810A0D0F8AD
:100440001880F10704D1002530071DD424E000BF37
:10045000F90710D00121BA07816009D4780700F1AB
:10046000AF80380700F1B680204600F0CDF902E0F9
:10047000204600F0CBF90025F80500F18780F8034D
:1004800000F1B180300707D51BF0100004D02068C0
:1004900045F400751021C160700708D51BF00800F5
:1004A00005D020680821C160204600F0A3F9B007FC
:1004B00006D52068C068800702D0204600F09CF96D
:1004C000700607D51AF0100004D0206845F4806546
:1004D00010210161B00608D51AF0080005D0206887
:1004E00008210161204600F089F9F00606D5206850
:1004F0000069800702D0204600F082F9B00308D5D9
:1005000019F0100005D0206810214160204600F04D
:1005100079F9F00308D519F0080005D02068082102
:100520004160204600F07CF9300440F19B805FEA96
:10053000497040F1948006F4807008EA1020284346
:100540005FEA8871014648BF41F00201B20558BF19
:1005500001465FEA48700D4648BF45F00405700546
:1005600058BF0D46300540F17A8018F0700000F059
:1005700076801038000905286CD8DFE800F00359B0
:100580005D61656945F0080564E000BF20684FF4CF
:100590008071BA0581600BD4780515D438051DD457
:1005A000204600F035F9F8037FF56CAF1BE000BF83
:1005B000204600F02FF9F8037FF564AF13E000BF89
:1005C0004FF4006558E700BF05F50055F8037FF5C7
:1005D00059AF08E04FF480554EE700BF05F5804560
:1005E000F8037FF54FAF20684FF48031BA03816084
:1005F0000AD4780310D4380314D4204600F00CF940
:1006000030073FF541AF47E7204600F007F93007D4
:100610003FF53AAF40E700BF05F5004530073FF52D
:1006200033AF39E705F5803530073FF52DAF33E7B8
:1006300045F010050EE000BF45F020050AE000BFC0
:1006400045F0400506E000BF45F0800502E000BF30
:1006500045F480752068816921F07001816120680E
:100660000421416055B1606A40EA0501204661629B
:1006700001B0BDE8F04FFFF7D3BE00BF01B0BDE849
:10068000F08F0000B0B5C8B1044690F8200010B952
:10069000204600F071F82068016841F00101016016
:1006A00000F08EFB054600BF20684168C90707D1EE
:1006B00000F086FB401B0B28F6D312E00120B0BDF2
:1006C000016821F00201016000F07AFB054600BFDD
:1006D0002068416889070DD500F072FB401B0B288C
:1006E000F6D3606A052140F400306062012084F88E
:1006F0002010B0BD217E0268012922F0800208BFCF
:1007000080320260617E0268012922F0400208BF47
:1007100040320260A17E0268012922F0200208BF57
:1007200020320260E17E0268012922F0100218BF27
:1007300010320260217F0268012922F0080208BFFE
:1007400008320260617F0268012922F0040208BFBA
:1007500004320260D4E901C2D4E9033561691A4365
:100760002A431143ACF101021143C1610020012170
:10077000606284F82010B0BD80B586B0016846F292
:100780000040C4F20000814202D006B080BD00BF2C
:10079000002143F630020191C4F20202136900F510
:1007A000D03043F000731361136903F000730193B9
:1007B000019B0191136843F002031360126802F079
:1007C00002020192019A4FF4407201920222CDE995
:1007D0000221032104910921059101A900F00EFADB
:1007E00014200021002200F06FFB142000F058FBC1
:1007F00006B080BD704700007047000070470000E1
:10080000704700007047000070470000704700000C
:1008100070470000704700007047000070470000FC
:100820007047000070B5866D044600F0C9FA94F870
:100830003510022928D105462068216C026822F073
:1008400016020260426922F08002426109B9A16C7D
:1008500019B1016821F008010160016821F001016E
:10086000016000BF20680068C00715D000F0A8FA3A
:10087000401B0628F6D320206065032084F835004D
:10088000002184F8341070BD8020606501200021B3
:1008900084F8341070BD00BFE06D3F2101FA00F014
:1008A000B060012084F835000020002184F8341065
:1008B00070BD000090F83510022909D1052180F89B
:1008C00035100068016821F00101016000207047C7
:1008D0008021416501207047F0B581B004460020B9
:1008E000009040F20800C2F200000268D4E91660ED
:1008F00048F2B51337680821C1F64E3381403942BA
:10090000A2FB03250CD0226813685B0708D5136887
:1009100023F004031360B160616D41F00101616572
:1009200001218140394208D022685269120604D55B
:10093000B160616D41F0020161650421814039427D
:1009400008D022681268920704D5B160616D41F049
:100950000401616510218140394217D02068026886
:10096000120713D5B16002680168520308D4C905A3
:1009700008D4016821F008010160216C21B905E06B
:1009800008033FD4216C09B120468847E16D20203F
:1009900000FA01F23A4241D020680368DB063DD5F7
:1009A000B26094F835300268052B1BD122F0160294
:1009B0000260426922F080024261226C0AB9A26C94
:1009C0001AB1026822F0080202603F208840B0603D
:1009D000012084F83500216D0020002984F83400BE
:1009E00052D157E00168520310D4C90512D40168EE
:1009F00021F010010160012084F83500002084F806
:100A0000340007E0A16C0029BED1BFE7080301D480
:100A1000616C00E0E16B09B120468847606DC8B3A6
:100A2000606DC0072ED0052084F835002068A90A23
:100A3000026822F001020260009A01328A420092AA
:100A40001AD80268D20717D0009A01328A4200925F
:100A500012D80268D2070FD0009A01328A4200925F
:100A60000AD80268D20707D0009A01328A4200925F
:100A700002D80268D207DFD1012084F835000020B7
:100A800084F83400E16C29B1204601B0BDE8F040A3
:100A9000084700BF01B0F0BD2DE9F041044600F069
:100AA0008FF9ECB10546022084F83500002021685A
:100AB00084F83400086820F00100086021680868A4
:100AC000C00711D000F07CF9401B0528F6D903259A
:100AD00020230320636584F83550BDE8F08100BF12
:100AE0000120BDE8F08100BF086848F23F02CFF264
:100AF0001002D4E9013500EA020C04F10C0898E870
:100B0000C10143EA0C032B431843D4E9072E3043B9
:100B100038431043626A40EA0E00042A40EA0803A0
:100B20001CD1206BD4E90A2E40EA0E00184308605D
:100B30004869BEF1000F20F0030040EA020040F0D7
:100B4000040C11D0B8F5005F36D0B8F1000F45D1D4
:100B5000022A46D0012A3BD032B942E00B604869F4
:100B600020F0070040EA020C01F0F8004AF6AB2240
:100B70001038CAF6AA22A0FB02231A0942F2C06367
:100B8000C0F600039A5C40F2FF335F284FF03F004D
:100B9000C1F814C021EA030100FA02F088BF043151
:100BA000C4E916128860002301250020636584F8DB
:100BB0003550BDE8F08100BF032AD5D80125402378
:100BC0000120DFE802F0030E030500BF82E700BF4B
:100BD000AEF1C070B0FA80F0400904E0032A04D3FB
:100BE000C2D1CEF300600028BED0012540230120F1
:100BF000636584F83550BDE8F08100002DE9F04FC1
:100C000082B000F13E4242F2004502F1FF77C4F2A9
:100C100002050A2243F6004E4FEAB726A84208BF53
:100C20000922C4F2010E092E38BF4FEAB72201256E
:100C3000002600274FF00008009208E008F10108A4
:100C40000437B8F1100F06F1020600F0A7800C6817
:100C500005FA08F914EA090FF0D0D1F804B003221C
:100C60000BF0030CACF10104B240012C6FEA020A54
:100C700010D88268CC6802EA0A02B440224382603B
:100C80004268CBF3001422EA090204FA08F4224372
:100C9000426005E0BCF1030F02D14FF0030C20E0ED
:100CA000C2688C6802EA0A02B4402243BCF1020F17
:100CB000C26016D16FF0030202EA58020244D2F871
:100CC00020C007F01C050F230C69AB402CEA03037E
:100CD00004FA05F52B431362D1F804B001250BF09B
:100CE000030C02680CFA06F302EA0A021A431BF428
:100CF000403F0260A2D0002243F644030192C4F2B6
:100D000002031A684FF6084C42F480421A601A68CF
:100D1000CFF6FF7C02F480420192019A28F0030290
:100D2000724452F80C3007F00C050F24AC40A3437A
:100D3000009C04FA05F52B4342F80C30DEF808203D
:100D40004B6842EA090543F60C4CDC0258BF22EA24
:100D50000905CEF80850C4F2010CDCF800209C0212
:100D600042EA090558BF22EA0905CCF80050DEF82E
:100D700004209C0342EA090558BF22EA0905CEF87F
:100D80000450DEF80020DB0342EA090558BF22EADE
:100D90000905CEF80050012550E700BF02B0BDE8BC
:100DA000F08F0000426902EA0103914341EA0341E6
:100DB00081617047002A08BF090481617047000003
:100DC00040F2D010C2F200000068704740F200000C
:100DD00040F2D011C2F20000C2F2000100780A68AD
:100DE000104408607047000080B543F60040C4F22C
:100DF0000200016841F400710160016841F4806102
:100E00000160016841F480710160032000F088F8FE
:100E10000F2000F005F800F027F8002080BD00004A
:100E200070B540F20006C2F2000640F208013278C6
:100E3000C2F200014FF47A730968B3FBF2F2044680
:100E4000B1FBF2F1084600F081FB0F2C4FF00105D9
:100E500008D838B94FF0FF3021460022002500F0B5
:100E600033F87460284670BD82B0002043F640011C
:100E70000190C4F202014A6842F480424A604A6822
:100E800002F480420192019A0090086840F080507C
:100E90000860086800F080500090009802B0704729
:100EA000002848BF7047C1B200F01F00012202FABB
:100EB00000F04EF20012CEF2000242EAD10121F01F
:100EC000030108607047000010B54EF60C5CCEF2CE
:100ED000000CDCF80030C3F3022E8EF00704042C63
:100EE00028BF0424BEF103034FF0FF3E0EFA04F4C2
:100EF00038BF0023A14399400EFA03F39A431143EC
:100F000000F00F0200F160430901043A03F5644365
:100F10006244002848BF02F10C03197010BD0000A4
:100F20004EF60C51CEF200010A684FF6FF031A404C
:100F300060F30A2242F0806040F0FD700860704764
:100F400070B582B00020019043F64000C4F2020068
:100F50000168402641F0805101600068C4F20E260D
:100F600000F080500190019847F204050120C4F27E
:100F700000053060FFF724FF044600BF2868C00367
:100F800006D4FFF71DFF001BB0F57A7FF6D90EE0FF
:100F900001207060FFF714FF044600BF286880033B
:100FA00008D4FFF70DFF001BB0F57A7FF6D90320B8
:100FB00002B070BD002002B070BD00002DE9F0410C
:100FC000002800F08B8043F60808C4F202080446AB
:100FD000D8F8F8030D4600F00F00884207D288F8D1
:100FE000F853D8F8F80300F00F00A84276D1206833
:100FF000810717D5410705D5D8F8001041F4E05115
:10100000C8F80010010705D5D8F8001041F4604178
:10101000C8F80010D8F80010A26821F0F0011143C0
:10102000C8F80010C0073FD1D8F8F80300F00F004F
:10103000A84207D988F8F853D8F8F80300F00F0051
:10104000A8424BD12068410707D5D8F80010E268C4
:1010500021F4E0511143C8F80010000708D5D8F872
:101060000000216920F4604040EAC100C8F8000097
:1010700000F07CF8D8F8001042F2A862C1F3031126
:10108000C0F60002515C40F2080220FA01F140F281
:101090000400C2F200000068C2F200021160FFF713
:1010A000BFFE0020BDE8F0816068811E022907D2E2
:1010B00058F8081C89015CBF0120BDE8F08111E0EF
:1010C000012807D158F8081C89035CBF0120BDE83E
:1010D000F08107E058F8081C890703D40120BDE817
:1010E000F08100BFD8F8001021F003010843C8F8D0
:1010F0000000FFF765FE064641F28837D8F8000089
:10110000616800F00C00B0EB810F8DD0FFF758FE46
:10111000801BB842F2D90320BDE8F08140F20800FC
:1011200043F60801C2F20000C4F202010068096837
:1011300042F2B862C1F38221C0F60002515CC8409D
:101140007047000040F2080043F60801C2F20000B8
:10115000C4F202010068096842F2B862C1F3423188
:10116000C0F60002515CC8407047000010B543F65D
:101170000404C4F20204606800F00C0008280BD0DC
:10118000042819BF42F20040C0F2F40041F60030DA
:10119000C0F2B70010BD00BF206821682368490273
:1011A00041F60031C0F2B70100F03F02C3F38810EE
:1011B0005CBF42F20041C0F2F401A1FB0001002338
:1011C000FFF764F821680222C1F3014102EB4101FB
:1011D000B0FBF1F010BD00002DE9F04182B0002815
:1011E00068D00446007843F60006C007C4F2020641
:1011F0000BD0B06800F00C00042840F09F803068ED
:10120000800302D56068002854D0207880071AD562
:10121000B06810F00C0F09D0B06800F00C0008287E
:1012200040F0A6807068400200F1A280306880071C
:1012300002D5E06801283DD13068216920F0F8002E
:1012400040EAC10030602078000737D4207840079A
:101250004CD4A56955B3B06800F00C00082840F0E4
:10126000BB80012D26D07068E16900F480028A42BB
:1012700020D1216A00F03F028A421BD147F6C0719B
:10128000626A0140B1EB821F14D1A16A4FF6FF736D
:10129000C903994300F44032A1F580318A4209D153
:1012A000E16A00F07060B0EB016F03D1002002B082
:1012B000BDE8F081012002B0BDE8F081606900283E
:1012C00040F20000C4F2472076D00121C0F8801E11
:1012D000FFF776FD054600BF706F8007B6D4FFF7B5
:1012E0006FFD401B0228F7D9DDE000BF306C10F025
:1012F00080580AD100200190306C40F0805030645A
:10130000306C00F080500190019847F20007C4F261
:1013100000073868C00541D4386840F480703860F0
:10132000FFF74EFD054600BF3868C00536D4FFF70D
:1013300047FD401B0228F7D9B5E000BFB06800F0B8
:101340000C00082803D1706840023FF558AF606870
:10135000B0F5803F07D0B0F5A02F40F08D80306809
:1013600040F480203060306840F4803030608DE0A0
:10137000E068002852D00020C4F24720012101601B
:10138000FFF71EFD054600BF306880073FF554AFEC
:10139000FFF716FD401B0228F6D984E0A06801285B
:1013A00005D005284ED1306F40F004003067306F13
:1013B00040F0010030674FE00021C0F8801EFFF7C9
:1013C000FFFC0546706F80077FF540AFFFF7F8FC24
:1013D000401B0228F6D966E00027C4F24727002008
:1013E0003866FFF7EDFC022D05460BD13068800111
:1013F0005ED5FFF7E5FC401B02284FF00300F5D94E
:1014000055E700BF306880017FF550AFFFF7D8FC8B
:10141000401B02284FF00300F4D948E70020C4F233
:10142000472000210160FFF7CBFC054630688007AC
:101430007FF509AFFFF7C4FC401B02284FF0030003
:10144000F4D934E7316F002821F001013167316FA1
:1014500021F0040131674DD0FFF7B2FC054641F29F
:10146000883700BF306F800756D4FFF7A9FC401BB8
:10147000B842F7D917E000BF3168002821F4803165
:101480003160316821F4802131604FD0FFF798FC42
:10149000054600BF306880033FF5B7AEFFF790FC0C
:1014A000401B6428F6D9032002B0BDE8F08100BFDC
:1014B00004F11C052FCD084340EA8210D9034FF6F2
:1014C000FF729143A1F5803140EA056008437060E6
:1014D00001203866FFF774FC044600BF30688001C5
:1014E0003FF5E4AEFFF76CFC001B02284FF0030051
:1014F000F4D9DCE6FFF764FC054641F2883700BF0B
:10150000306F800708D5FFF75BFC401BB8424FF0F7
:101510000300F5D9CBE600BFB8F1000F7FF499AE18
:10152000306C20F08050306493E600BFFFF748FC39
:10153000054600BF306880037FF567AEFFF740FCCB
:10154000401B64284FF00300F4D9B0E6411E002090
:10155000B0EB116F1CBF012070474EF21002CEF2AB
:10156000000251604EF62351CEF20001F0230B70C1
:1015700007219060116070477047000070470000BD
:1015800010B590F83C20012A4FF0020251D080F8AB
:101590003D200268D2F804E0D2F808C00C682EF0B2
:1015A0007003234341F2FF74C4F20004A24253606B
:1015B0000EDC40F2FF73C4F200039A4216DCB2F173
:1015C000804F2BD040F20043C4F2000324E000BF60
:1015D00040F2FF33C4F201039A4213DC41F60003E8
:1015E000C4F200039A4219D0002313E040F600032E
:1015F000C4F200039A4211D040F60043C4F2000343
:101600000AE000BF44F20003C4F201039A4205D08D
:1016100040F20043C4F201039A4204D149682CF01D
:101620008003194391600121002280F83D1080F869
:101630003C20104610BD0000002804BF0120704768
:1016400010B5044690F83D0028B9002084F83C000D
:10165000204600F01FF8022084F83D002068211D7C
:1016600000F04CFE012084F8460084F83E0084F827
:101670003F0084F8400084F8410084F8420084F878
:10168000430084F8440084F8450084F83D000020BD
:1016900010BD000080B582B0006841F20001C4F2C4
:1016A000000188421CBF02B080BD0020019043F6BB
:1016B0004000C4F202000168002241F01001016004
:1016C0000068002100F01000019001983620FFF71B
:1016D000FBFB362002B0BDE88040FFF7E1BB000015
:1016E00090F83D1001291CBF01207047022180F8AD
:1016F0003D10006841F2FF72C168C4F200029042DE
:1017000041F00101C1600DDC40F2FF71C4F2000143
:10171000884215DCB0F1804F2AD040F20041C4F27B
:10172000000123E040F2FF31C4F20101884213DCE2
:1017300041F60001C4F20001884219D0002113E0F3
:1017400040F60001C4F20001884211D040F6004189
:10175000C4F200010AE000BF44F20001C4F201013A
:10176000884205D040F20041C4F20101884206D10E
:10177000816801F00701062904BF00207047016855
:1017800041F0010101600020704700007047000037
:1017900070B504460068C5680669B10716D515F02E
:1017A000020113D06FF002010161012121778069EC
:1017B000800703D02046FFF7E9FF05E0204600F050
:1017C0008FF8204600F08EF800202077700719D59A
:1017D00015F0040016D020686FF0040101610221A9
:1017E0002177806910F4407F04D02046FFF7CEFFB8
:1017F00006E000BF204600F073F8204600F072F8C3
:1018000000202077300717D515F0080014D0206885
:101810006FF00801016104212177C069800703D0BE
:101820002046FFF7B3FF05E0204600F059F82046B8
:1018300000F058F800202077F00619D515F01000B8
:1018400016D020686FF01001016108212177C0696E
:1018500010F4407F04D02046FFF798FF06E000BF59
:10186000204600F03DF8204600F03CF800202077AC
:10187000F00718BF15F0010002D1300609D412E0BC
:1018800020686FF001010161204600F02DF830065C
:1018900009D515F0800006D020686FF08001016145
:1018A0002046FFF769FE700609D515F0400006D006
:1018B00020686FF040010161204600F027F8B00673
:1018C00058BF70BD15F0200008D021686FF02002CD
:1018D00020460A61BDE87040FFF750BE70BD0000B1
:1018E000704700007047000040F2F801C2F20001AA
:1018F00000680968884218BF704741F20040C4F28E
:1019000002004FF48041FFF74DBA0000704700001D
:101910007047000070470000B0B582B00446006810
:101920000168C368426901F02F05202D03F02005EE
:1019300006D12DB1204602B0BDE8B04000F090BD08
:101940005FEA017C1EBF02F0010E03F4907212EBFD
:101950000E0253D1226B012A05D111F0100218BFDB
:1019600013F0100236D10A0622D513F080021FD0E0
:1019700094F8411021293FD1A168B1F5805F03D1CE
:101980002169002900F07282216A4A1C22620978CA
:101990004160E18C01390A04E1842DD1C16821F054
:1019A0008001C160C16841F04001C16002B0B0BDBA
:1019B000490621D513F040011ED0C16821F0400135
:1019C000C1602021204684F8411002B0BDE8B0403B
:1019D00000F020BB00210191016801914168019153
:1019E00001994069400613D4A08DE18DE28D002A53
:1019F00018BF884240F0BC8102B0B0BDCA0718BF12
:101A000013F4807240F0B8804A0700F1BB80C0E058
:101A1000E06B016849688AB2002AEDD0A38D9A4232
:101A2000EAD2E185C069B0F5807F00F09C80206833
:101A300050E8030F216820F4807041E80302DAB116
:101A4000206850E8030F216820F4807041E8030209
:101A500092B1206850E8030F216820F4807041E8BB
:101A600003024AB1206850E8030F216820F4807017
:101A700041E80302002ADAD1206850E8050F216806
:101A800020F0010041E80502DAB1206850E8050FB6
:101A9000216820F0010041E8050292B1206850E879
:101AA000050F216820F0010041E805024AB12068D5
:101AB00050E8050F216820F0010041E80502002AE6
:101AC000DAD1206850E8050F216820F0400041E895
:101AD0000502DAB1206850E8050F216820F04000C7
:101AE00041E8050292B1206850E8050F216820F016
:101AF000400041E805024AB1206850E8050F21681E
:101B000020F0400041E80502002ADAD1202084F8C4
:101B1000420000202063206850E8030F216820F075
:101B2000100041E80302DAB1206850E8030F216891
:101B300020F0100041E8030292B1206850E8030F42
:101B4000216820F0100041E803024AB1206850E803
:101B5000030F216820F0100041E80302002ADAD1C7
:101B6000E06BFEF75FFE02206063A08DE18D401AFE
:101B700081B2204675E100BF626C42F001026264EE
:101B80004A0706D5BEF1000F03D0626C42F0020294
:101B900062648A0706D5BEF1000F03D0626C42F082
:101BA00004026264BCF1000F09D545EA0E02B2FAE4
:101BB00082F2520903D1626C42F008026264626CE4
:101BC000002A3FF419AF11F0200118BF002D03D0F7
:101BD000204600F045FC20684069616C00F0400040
:101BE00001F00801401800F0B58000BF206850E8FF
:101BF000030F216820F4907041E80302BAB3206813
:101C000050E8030F216820F4907041E8030272B39A
:101C1000206850E8030F216820F4907041E8030227
:101C20002AB3206850E8030F216820F4907041E83F
:101C30000302002ADAD11AE0206850E8050F216873
:101C400020F0010041E80502DAB1206850E8050FF4
:101C5000216820F0010041E8050292B1206850E8B7
:101C6000050F216820F0010041E805024AB1206813
:101C700050E8050F216820F0010041E80502002A24
:101C8000DAD1206B012824D1206850E8030F2168A5
:101C900020F0100041E80302DAB1206850E8030F99
:101CA000216820F0100041E8030292B1206850E85A
:101CB000030F216820F0100041E803024AB12068B8
:101CC00050E8030F216820F0100041E80302002AC9
:101CD000DAD1202084F84200002020632068406987
:101CE00040063FD5206850E8050F216820F04000ED
:101CF00041E80502DAB1206850E8050F216820F0BC
:101D0000400041E8050292B1206850E8050F2168C3
:101D100020F0400041E805024AB1206850E8050F74
:101D2000216820F0400041E80502002ADAD1E06B8A
:101D3000C0B142F25541C0F600010165FEF7BAFD9F
:101D400000283FF459AEE06B016D02B0BDE8B04031
:101D5000084700BF2046FFF7DDFD0020606402B0A9
:101D6000B0BD00BF204602B0BDE8B040FFF7D2BD15
:101D7000401A216851E8031F226821F4907142E85B
:101D80000313DBB1216851E8031F226821F490712D
:101D900042E8031393B1216851E8031F226821F43C
:101DA000907142E803134BB1216851E8031F226888
:101DB00021F4907142E80313002BDAD1216851E835
:101DC000051F226821F0010142E80513DBB12168FB
:101DD00051E8051F226821F0010142E8051393B183
:101DE000216851E8051F226821F0010142E805132E
:101DF0004BB1216851E8051F226821F0010142E83A
:101E00000513002BDAD1202184F842100021216330
:101E1000216851E8031F226821F0100142E80313F2
:101E2000DBB1216851E8031F226821F0100142E86C
:101E3000031393B1216851E8031F226821F01001B8
:101E400042E803134BB1216851E8031F226821F0D7
:101E5000100142E80313002BDAD1022281B220469E
:101E6000626302B0BDE8B040FFF752BD216A31F8AD
:101E7000022B6FF35F22426021628AE5002804BFD3
:101E80000120704710B5044690F8410028B90020A1
:101E900084F84000204600F021F8242084F8410016
:101EA0002068C16821F40051C160204600F058FB51
:101EB0002068016921F490410161416921F02A0102
:101EC0004161C16841F40051C1600020202160647B
:101ED00084F8411084F84210606310BD70B586B07C
:101EE0000446006841F20001C4F201010026884264
:101EF000CDE90466CDE90266019635D047F60001CA
:101F0000C4F20001884240F08080002043F6300196
:101F10000090C4F202010A6942F080420A610A6933
:101F200002F080420092009A00900A6842F010028B
:101F30000A60096801F01001009100994FF4C07126
:101F400001910221CDE902100320049008200590A0
:101F500040F20040C4F2020000F5406001A9FEF723
:101F60004DFE522449E000BF43F630000096C4F213
:101F70000200416941F010014161416901F0100125
:101F8000009100990096016841F00201016000682B
:101F900001A900F0020000900098C02001900220EA
:101FA000CDE90206032004900720059040F200408E
:101FB000C4F20200FEF722FE40F2980546F24040CD
:101FC000C2F20005C4F202004FF000614FF48062DB
:101FD0004FF4807385E843002846C5E90362C5E9EC
:101FE0000566C5E907366E62FEF756FD002818BF84
:101FF000FEF712FAE563AC63252420460021002297
:10200000FEF762FF2046FEF74BFF06B070BD0000F2
:102010007047000070470000FEE7000080B540F206
:10202000700046F20041C2F20000C4F20001032237
:10203000002380E80E0000F10C014FF4102C4FF447
:10204000401E81E8085083618383FEF71BFB002854
:1020500008BF80BDBDE88040FEF7DEB980B582B024
:102060000020019043F63000C4F202000168002213
:1020700041F4800101600068002100F480000190BB
:1020800001983A20FEF720FF3A2002B0BDE88040D8
:10209000FEF706BF70B586B0002543F63000059503
:1020A0000095C4F20200016841F2004441F00201CF
:1020B00001600168C4F2020401F00201009100997C
:1020C00000950168002241F00101016001684FF4B0
:1020D000804601F00101009100990095016841F0EE
:1020E00080010160016801F0800100910099009574
:1020F000016841F010010160016801F010010091D8
:1021000000990095016841F02001016000684FF4DA
:10211000804100F02000009000982046FEF74AFE23
:102120000120CDE9020501A9204601960495FEF79C
:1021300065FD06B070BD000080B582B040F2F800C9
:1021400041F200020021C2F20000C4F2000241F29A
:10215000931342F20F7CCDE90011C0E90023C0E9DE
:10216000021C8161FFF768FA002818BFFEF754F9D6
:1021700040F2F800C2F200006946FFF701FA0028B9
:1021800018BFFEF749F902B080BD000080B540F2EB
:10219000881047F60001C2F20000C4F200010023DB
:1021A0004FF00C0C4FF4E13280E80E00C0E903332D
:1021B000C0E905C3C361FFF761FE002808BF80BD09
:1021C000BDE88040FEF728B910B540F2401041F25A
:1021D000000C48F2A062C2F20000C4F2010CC0F28E
:1021E00001024FF4805300214FF4806E0C24C0E9AB
:1021F00000C2C0E90231C0E904E4C0E90611FFF7FA
:102200003DFE002808BF10BDBDE81040FEF704B930
:10221000FEE70000FEE70000704700007047000086
:10222000FEF7D4BD80B592B0002043F640010B907C
:10223000CDE90900CDE907000590CDE90300CDE91E
:1022400001000090C4F202010A6842F080520A6064
:10225000096801F080510091009947F20001009057
:10226000C4F200010A6842F440420A60096801228F
:1022700001F44041009100990221CDE90C100820A1
:102280000E90B420CDE90F01042009921022119084
:1022900006A806910A92FEF79FFF18B172B600BF1A
:1022A000FEE700BFFEF74CFE10B172B6FEE700BFBE
:1022B0000F20019002200290002003904FF4A050C4
:1022C00004904FF48050059001A80521FEF776FE9A
:1022D00010B172B6FEE700BF12B080BD4EF6885056
:1022E000CEF20000016841F4700101607047000007
:1022F00040F2F800C2F20000FFF74ABA10B540F60B
:10230000FF3E0368C4F2000E40F2004C7045C4F278
:10231000010C27DCB0F1804F31D040F20042C4F212
:10232000000290422BD040F60002C4F2000290421C
:1023300025D041F6FF72C4F20002904229DC7045BC
:102340003CDCB0F1804F5FD040F20042C4F20002AA
:10235000904259D040F60002C4F20002904253D09D
:1023600056E000BF40F60042C4F20002904206D0A0
:10237000604504D00022C4F201029042D9D14A68DB
:1023800023F07003134341F6FF72C4F2000290423F
:10239000D5DD43F6FF72C4F20102904222DC42F224
:1023A0000002C4F2000290422ED00022C4F20102C8
:1023B000904229D0604527D02AE000BF40F6004275
:1023C000C4F2000290421FD041F60002C4F20002A3
:1023D000904219D041F60042C4F20002904213D05C
:1023E00016E000BF44F20002C4F2010290420BD09A
:1023F00044F60002C4F20102904205D044F20042C9
:10240000C4F20102904203D1CA6823F4407313431B
:1024100023F080024B69D1F800E08C681A43026017
:10242000C46240F48062C0F828E0624504BF0969D4
:102430000163012141610169C90708BF10BD01693C
:1024400021F00101016110BD40F28810C2F20000CC
:10245000FFF762BA806B0021C185C184FFF75ABAC9
:1024600081B090F84210222921D183680246B3F549
:10247000805F09D152F8281F52F8183C002B63D016
:1024800003685B680AE000BF52F8281F13B90369AC
:10249000002BF5D003685B6803F07F030B701168B5
:1024A00001311160C18D01390A04C18502D001B02A
:1024B000704700BF0168CA6822F02002CA60CA687B
:1024C00022F48072CA604A6922F001024A61202126
:1024D00080F8421000214163026B012A3CD1016364
:1024E000016851E8031F026821F0100142E803135C
:1024F000DBB1016851E8031F026821F0100142E8D6
:10250000031393B1016851E8031F026821F0100121
:1025100042E803134BB1016851E8031F026821F040
:10252000100142E80313002BDAD101680A68D206D1
:1025300006D5002200920A6800924968009100992D
:10254000818D01B0FFF7E4B9026852686FF35F2232
:1025500021F8022B8162A5E701B0FFF759BD000009
:1025600010B504460068D4E902C22369016921F468
:10257000405111430161626943EA0C01E36911436F
:10258000C268194349F20C639A431143C16041691F
:10259000A26921F4407141F20043114340F480628A
:1025A000C4F201039A42416102D1FEF7CBFD01E082
:1025B000FEF7B4FDE16963681922B1F5004FA0FB95
:1025C000020123D15A00DB0FFDF760FE48F21F51D4
:1025D000C5F2EB11A0FB01235A094FF69C73C0F61C
:1025E000FF7303F1805302FB0300322303EBC000AF
:1025F000A0FB01014FF4F87000EA111000EB02108B
:10260000C1F3421108442168886010BD9A009B0FF5
:10261000FDF73CFE48F21F51C5F2EB11A0FB012370
:102620005A094FF69C73C0F6FF7302FB0300322376
:1026300003EB0010A0FB0101F02000EA511000EBB9
:102640000210C1F3431108442168886010BD0000E6
:1026500040F24010C2F20000FFF75EB9FEE7000052
:10266000FEF7C2FBFFF7DEFDFFF714FDFFF7F6FCF8
:10267000FFF762FDFFF78AFDFFF7A6FDFFF7CEFC2F
:1026800040F2F800C2F20000FFF72AF8FEE7F1EE90
:10269000100A4FF6FF71C0F2C03120EA010040F08D
:1026A0004070E1EE100A70470000000000000000DA
:1026B00001020304060708090000000001020304E8
:1026C0000006101600061016E8260008000000207C
:1026D00010000000E8010008F826000810000020A3
:1026E000C8070000040200080100000010000000FC
:0826F0000024F40000000000CA
:04000005080001AD41
:00000001FF
