:020000040800F2
:1000000000000320610A0008CD070008CF070008A0
:10001000D1070008D3070008D5070008000000003A
:10002000000000000000000000000000D7070008EA
:10003000D907000800000000DB070008DD07000802
:10004000B10A0008B10A0008B10A0008B10A0008A4
:10005000B10A0008B10A0008B10A0008B10A000894
:10006000B10A0008B10A0008B10A0008B10A000884
:10007000B10A0008B10A0008B10A0008B10A000874
:10008000B10A0008B10A0008B10A0008B10A000864
:10009000E5070008B10A0008B10A0008B10A000823
:1000A000B10A0008B10A0008B10A0008B10A000844
:1000B000B10A0008B10A0008B10A0008B10A000834
:1000C000B10A0008B10A0008B10A0008B10A000824
:1000D000B10A0008F5070008B10A0008B10A0008D3
:1000E000B10A0008B10A0008B10A0008B10A000804
:1000F000B10A0008B10A0008B10A0008B10A0008F4
:10010000B10A0008B10A0008B10A0008B10A0008E3
:10011000B10A0008B10A000805080008B10A000881
:10012000B10A0008B10A000815080008B10A000861
:10013000B10A0008B10A0008B10A0008B10A0008B3
:10014000B10A0008B10A0008B10A0008B10A0008A3
:10015000B10A0008B10A0008B10A0008B10A000893
:10016000B10A0008B10A0008B10A0008B10A000883
:10017000B10A0008B10A0008B10A00080000000036
:10018000B10A0008B10A000825080008B10A0008F1
:10019000B10A0008B10A0008B10A0008B10A000853
:0C01A0000000000000000000B10A000890
:1001AC0010B5054C237833B9044B13B10448AFF3A5
:1001BC0000800123237010BD1000002000000000FF
:1001CC00EC27000808B5034B1BB103490348AFF3F8
:1001DC00008008BD0000000014000020EC2700087F
:1001EC0053B94AB9002908BF00281CBF4FF0FF3192
:1001FC004FF0FF3000F06AB9ADF1080C6DE904CE98
:10020C0000F006F8DDF804E0DDE9022304B07047E5
:10021C002DE9F047089D0C46002B4ED194468C4599
:10022C008646B2FA82F262D94AB1C2F120039140F9
:10023C0020FA03F30CFA02FC194300FA02FE4FEA0F
:10024C001C471FFA8CF6B1FBF7F44FEA1E4307FB71
:10025C00141143EA014304FB06F199420AD91CEB41
:10026C00030304F1FF3080F01281994240F20F81B8
:10027C00023C6344591A1FFA8EF3B1FBF7F007FBEB
:10028C00101143EA014300FB06F69E420AD91CEB0F
:10029C00030300F1FF3180F0FC809E4240F2F980B4
:1002AC00634402389B1B40EA044000211DB1D3403B
:1002BC000022C5E90032BDE8F0878B4205D90DB1AB
:1002CC00C5E9000100210846F5E7B3FA83F10029DE
:1002DC0046D1A34202D39042C0F0F080861A64EB60
:1002EC0003030120002DE6D0C5E90063E3E7002AF3
:1002FC0040F09080A1EB0C044FEA1C481FFA8CF7DD
:10030C000121B4FBF8F64FEA1E4308FB164443EAFE
:10031C00044307FB06F0984208D91CEB030306F1D3
:10032C00FF3402D2984200F2CD8026461C1A1FFAE6
:10033C008EF3B4FBF8F008FB104443EA044300FBD3
:10034C0007F79F4208D91CEB030300F1FF3402D2DC
:10035C009F4200F2B0802046DB1B40EA0640A5E736
:10036C00C1F120068B4022FA06F71F4320FA06FC47
:10037C0004FA01F343EA0C03F44000FA01F8380CD8
:10038C004FEA1349B4FBF0FE1FFA87FC00FB1E4436
:10039C0049EA04440EFB0CF9A14502FA01F20AD910
:1003AC003C190EF1FF3A80F08480A14540F2818027
:1003BC00AEF1020E3C44A4EB09041FFA83F9B4FB22
:1003CC00F0F300FB134449EA044403FB0CFCA44582
:1003DC0007D93C1903F1FF3067D2A44565D9023B1C
:1003EC003C4443EA0E40A0FB0293A4EB0C049C4259
:1003FC00CE469C4651D34ED055B1B8EB0E0364EBB0
:10040C000C0404FA06F6CB401E43CC40C5E900644C
:10041C00002150E7C2F1200320FA03F10CFA02FC90
:10042C0024FA03F394400C434FEA1C4800FA02FEF2
:10043C001FFA8CF7B3FBF8F008FB1031230C43EADE
:10044C00014300FB07F1994208D91CEB030300F1AF
:10045C00FF362CD299422AD9023863445B1AA4B2D3
:10046C00B3FBF8F108FB113344EA034401FB07F337
:10047C00A34208D91CEB040401F1FF3613D2A342AA
:10048C0011D902396444E41A41EA004139E70446BF
:10049C00F0E6084606E7C845AED2B9EB020E63EBB0
:1004AC00070C0138A8E73146EDE7034699E73046DB
:1004BC00D4E7D6467FE7634402384DE70646234629
:1004CC0008460FE7023E634430E700BF704700BFA9
:1004DC0008B50268054B1B689A4200D008BD4FF462
:1004EC008041034801F0C0F8F8E700BF5400002039
:1004FC000014024008B50D480D4B03600323436004
:10050C0000238360C3604FF4102202614FF4401249
:10051C004261037643768376C3760377437700F0A4
:10052C0029FB00B908BD00F0B3F8FBE72C00002054
:10053C000064004010B588B0002303930493059326
:10054C00069307930268194B9A4201D008B010BD6C
:10055C000024019403F5EA331A6C42F000721A6419
:10056C001A6C02F000720192019A02941A6B42F01A
:10057C0002021A631B6B03F002030293029B4FF4FB
:10058C0040730393022304930323069309230793D5
:10059C0003A9074800F05CFF22462146142000F016
:1005AC0015FD142000F022FDD0E700BF00640040D0
:1005BC000004024000B583B000210191094B1A6B75
:1005CC0042F480021A631B6B03F480030193019BBA
:1005DC000A463A2000F0FAFC3A2000F007FD03B07E
:1005EC005DF804FB0038024030B58BB00024059454
:1005FC0006940794089409940094234B1A6B42F0C8
:10060C0002021A631A6B02F002020092009A019421
:10061C001A6B42F001021A631A6B02F0010201928A
:10062C00019A02941A6B42F080021A631A6B02F060
:10063C0080020292029A03941A6B42F010021A631F
:10064C001A6B02F010020392039A04941A6B42F094
:10065C0020021A631B6B03F020030493049B0B4DC5
:10066C0022464FF48041284600F0F8FF4FF48043B7
:10067C000593012306930794089405A9284600F0D6
:10068C00E7FE0BB030BD00BF003802400014024042
:10069C0072B6FEE700B595B03022002108A802F032
:1006AC000DF800230393049305930693079301938A
:1006BC00224A116C41F080511164126C02F080528C
:1006CC000192019A02931E4A116841F44041116053
:1006DC00126802F440420292029A0222089201210C
:1006EC000B9110210C910E920F9308231093B423AD
:1006FC00119312920423139308A800F0FDFFB0B9D4
:10070C0000F0BCFFA8B90F2303930223049300232A
:10071C0005934FF4A05306934FF480530793052190
:10072C0003A801F039FA30B915B05DF804FBFFF7F6
:10073C00AFFFFFF7ADFFFFF7ABFF00BF0038024084
:10074C000070004008B500F0D5F9FFF7A3FFFFF7E4
:10075C004BFFFFF72FFF00F069F800F0AFF800F047
:10076C00C7F8FFF7C7FE064801F0ECFA4FF47A70B1
:10077C0000F0ECF94FF48041024800F075FFF5E70A
:10078C00540000200014024082B0002100910B4B59
:10079C005A6C42F480425A645A6C02F480420092C1
:1007AC00009A01911A6C42F080521A641B6C03F08F
:1007BC0080530193019B02B0704700BF0038024088
:1007CC00FEE7FEE7FEE7FEE7FEE77047704770477F
:1007DC0008B500F0A9F908BD08B5024800F07DFA8B
:1007EC0008BD00BF2C00002008B5024801F024FE13
:1007FC0008BD00BFFC00002008B5024801F0EAFA71
:10080C0008BD00BF5400002008B5024800F032FDBE
:10081C0008BD00BF9C00002008B5024801F00CFE8A
:10082C0008BD00BF440100207047000000B583B034
:10083C000023009301930F480F4A026041F2931278
:10084C004260836042F20F72C260836101F0DEFB92
:10085C0050B90023009301936946064801F002FC4D
:10086C0028B903B05DF804FBFFF712FFF1E7FFF7BF
:10087C000FFFF6E7540000200010004002680E4BFA
:10088C009A4200D0704700B583B00021019103F566
:10089C000A331A6C42F010021A641B6C03F010033A
:1008AC000193019B0A46362000F090FB362000F0A5
:1008BC009DFB03B05DF804FB0010004008B50A482E
:1008CC000A4B03604FF4E133436000238360C36041
:1008DC0003610C2242618361C36101F0F1FC00B938
:1008EC0008BDFFF7D5FEFBE744010020007800406F
:1008FC0008B50C480C4B03600C4B43604FF4805311
:10090C0083600023C3604FF4806202610C22426159
:10091C008361C36101F0D4FC00B908BDFFF7B8FED8
:10092C00FBE700BFFC00002000100140A086010086
:10093C0030B58BB000230593069307930893099366
:10094C0003683D4A934205D004463C4A93422DD05D
:10095C000BB030BD00240194394B1A6C42F080422C
:10096C001A641A6C02F080420192019A02941A6B7A
:10097C0042F010021A631B6B03F010030293029BEC
:10098C004FF4C073059302230693032308930823A3
:10099C00099305A92B4800F05BFD22462146522005
:1009AC0000F014FB522000F021FBD1E70025039549
:1009BC00234B5A6C42F010025A645A6C02F010022B
:1009CC000392039A04951A6B42F002021A631B6B92
:1009DC0003F002030493049BC023059302230693A4
:1009EC00032308930723099305A9174800F030FD4A
:1009FC001648174B03604FF0006343608560C56079
:100A0C004FF480630361456185614FF48073C3616A
:100A1C000562456200F06AFB58B90C4BE3639C63BA
:100A2C0000221146252000F0D1FA252000F0DEFA34
:100A3C008EE7FFF72DFEF0E7007800400010014034
:100A4C000038024000100240000402409C000020CC
:100A5C0040640240DFF834D0FFF7E6FE0C480D4945
:100A6C000D4A002302E0D458C4500433C4188C42FD
:100A7C00F9D30A4A0A4C002301E013600432A24263
:100A8C00FBD301F023FEFFF75DFE7047000003204F
:100A9C000000002010000020382800081000002062
:100AAC0028030020FEE7000010B504460E4B1A7810
:100ABC004FF47A73B3FBF2F30C4A1068B0FBF3F00B
:100ACC0000F098FA68B90F2C01D901200AE0002235
:100ADC0021464FF0FF3000F079FA054B1C600020E6
:100AEC0000E0012010BD00BF040000200000002029
:100AFC000800002008B50B4B1A6842F400721A600B
:100B0C001A6842F480621A601A6842F480721A60A1
:100B1C00032000F049FA0F20FFF7C6FFFFF734FE61
:100B2C00002008BD003C0240034A1168034B1B78AF
:100B3C000B441360704700BF8C01002004000020A0
:100B4C00014B1868704700BF8C01002038B5044673
:100B5C00FFF7F6FF0546B4F1FF3F02D0044B1B78BC
:100B6C001C44FFF7EDFF401BA042FAD338BD00BF79
:100B7C0004000020002800F0A18038B5044690F84D
:100B8C002030D3B12268136843F001031360FFF7E0
:100B9C00D7FF054623685A6812F0010F10D1FFF7F2
:100BAC00CFFF401B0A28F5D9636A43F40033636214
:100BBC00052384F82030012038BDFFF7BBFCE1E7AA
:100BCC001A6822F002021A60FFF7BAFF0546236882
:100BDC005A6812F0020F0DD0FFF7B2FF401B0A2823
:100BEC00F5D9636A43F400336362052384F820303B
:100BFC000120E1E7227E012A3DD01A6822F0800212
:100C0C001A60637E012B3BD02268136823F04003EB
:100C1C001360A37E012B39D02268136823F02003C4
:100C2C001360E37E012B37D02268136843F0100366
:100C3C001360237F012B35D02268136823F008033F
:100C4C001360637F012B33D02268136823F00403F5
:100C5C001360A368E2681343226913436269134368
:100C6C006268013A21681343CB6100206062012362
:100C7C0084F82030A0E71A6842F080021A60C0E7BE
:100C8C002268136843F040031360C2E722681368BC
:100C9C0043F020031360C4E72268136823F01003A9
:100CAC001360C6E72268136843F008031360C8E7B3
:100CBC002268136843F004031360CAE701207047ED
:100CCC007047704770477047704770477047704760
:100CDC00704770477047704770472DE9F84F0546CD
:100CEC0003685C69D3F804809F68D3F80CB0D3F820
:100CFC0010A0D3F8189014F001063BD017F00106A1
:100D0C0016D001229A6017F0020F08D117F0040FC9
:100D1C000CD117F0080606D04FF4805608E0FFF708
:100D2C00CFFF002604E0FFF7CEFF01E04FF4006692
:100D3C0017F4807F0DD02B684FF480729A6017F4F3
:100D4C00007F40F0868017F4806F00F0868046F4B8
:100D5C00005617F4803F0DD02B684FF480329A6008
:100D6C0017F4003F40F0838017F4802F00F083804D
:100D7C0046F4004614F0080F07D01BF0100F04D0F7
:100D8C0046F400762B681022DA6014F0040F02D0BF
:100D9C001BF0080F79D114F0020F04D02B68DB681C
:100DAC0013F0030F78D114F0400F07D01AF0100F86
:100DBC0004D046F480662B6810221A6114F0200FC0
:100DCC0002D01AF0080F6BD114F0100F04D02B685E
:100DDC001B6913F0030F6AD114F4003F02D018F012
:100DEC00100F68D114F4803F02D018F0080F69D1AD
:100DFC0014F4004F7AD018F0040F74D014F4807FE0
:100E0C0004D019F0010F01D046F0010614F4007F54
:100E1C0004D019F0020F01D046F0020614F4806FD2
:100E2C0004D019F0040F01D046F0040614F4006F3E
:100E3C0059D019F0700956D0B9F1400F65D058D877
:100E4C00B9F1200F5ED0B9F1300F42D146F0200637
:100E5C0044E02846FFF735FF7BE717F4006F02D01C
:100E6C0046F4804675E72846FFF72EFF71E72846C3
:100E7C00FFF728FF7EE717F4002F02D046F48036E8
:100E8C0078E72846FFF721FF74E72B680822DA6021
:100E9C002846FFF71CFF7EE72846FFF717FF82E77F
:100EAC002B6808221A612846FFF713FF8CE72846A7
:100EBC00FFF70EFF90E72B6810225A602846FFF7C9
:100ECC0009FF8FE72B6808225A602846FFF703FFBB
:100EDC008EE7B9F1100F01D146F008062A68936924
:100EEC0023F0700393612B6804225A609EB9BDE80D
:100EFC00F88FB9F1500F0BD0B9F1600FEED146F469
:100F0C008076EBE746F01006E8E746F04006E5E7AA
:100F1C0046F08006E2E76B6A33436B622846FFF7C4
:100F2C00DBFEE4E7002807DB00F01F024009012389
:100F3C009340024A42F82030704700BF00E100E0C5
:100F4C00002808DB0901C9B200F1604000F56140DE
:100F5C0080F80013704700F00F000901C9B2014B73
:100F6C001954704714ED00E000B500F00700C0F113
:100F7C00070CBCF1040F28BF4FF0040C031D062B0B
:100F8C000FD9C31E4FF0FF3E0EFA0CF021EA000100
:100F9C0099400EFA03FE22EA0E0241EA02005DF8C5
:100FAC0004FB0023EEE70000074AD36823F4E06358
:100FBC001B041B0C000200F4E060034343F0BF630E
:100FCC0043F40033D360704700ED00E010B50446E5
:100FDC00054BD868C0F30220FFF7C6FF0146204638
:100FEC00FFF7AEFF10BD00BF00ED00E008B5FFF746
:100FFC0099FF08BD0138B0F1807F0BD24FF0E02390
:10100C005861054AF02182F82310002098610722CC
:10101C001A6170470120704700ED00E010B40368BE
:10102C00D9B210390B4AA2FB014212090A4CA25C3C
:10103C00C2655F2908D923F47F7323F003030433BB
:10104C008365806D10BC704723F47F7323F003031A
:10105C008365F6E7ABAAAAAA1C280008836A8269F2
:10106C0092B9012B0AD0022B02D00BB10020704791
:10107C00C36A13F0807F28D100207047C36AB3F194
:10108C00C07F24D000207047B2F5005F09D0022B3E
:10109C0025D9032B25D1C36A13F0807F23D10020DF
:1010AC007047032B03D8DFE803F01404140A002064
:1010BC007047C36A13F0807F0DD100207047C36A5C
:1010CC00B3F1C07F09D00020704701207047012088
:1010DC0070470120704701207047012070470120A4
:1010EC0070470020704701207047000070B504461F
:1010FC00FFF726FD002C5BD00546022384F8353023
:10110C00002384F834302268136823F00103136041
:10111C0023681A6812F0010F0AD0FFF711FD431B68
:10112C00052BF5D920236365032084F8350070BDA9
:10113C001A68204911406268A0680243E0680243C3
:10114C002069024360690243A0690243E0690243DB
:10115C00206A02430A43616A04291ED01A60266879
:10116C00756925F00705636A1D43042B07D1A36A33
:10117C001D43E36A1BB12046FFF770FF90B9756100
:10118C002046FFF74BFFE26D3F2393408360002026
:10119C006065012384F83530C9E7E16A206B0143AF
:1011AC000A43DBE740236365012084F83500BEE782
:1011BC000120BCE73F8010F070B50446866DFFF748
:1011CC00BFFC94F83530DBB2022B06D0802363656C
:1011DC00002384F83430012070BD05462268136862
:1011EC0023F0160313602268536923F080035361C4
:1011FC00236CE3B12268136823F0080313602268A0
:10120C00136823F00103136023681B6813F0010FAC
:10121C0011D0FFF795FC431B052BF5D920236365F3
:10122C00032084F83500002384F83430D4E7A36C11
:10123C00002BDFD1E3E7E26D3F239340B360012342
:10124C0084F83530002084F83400C5E790F8353048
:10125C00DBB2022B03D080234365012070470523AA
:10126C0080F835300268136823F001031360002006
:10127C0070470000F0B583B0044600230193724B15
:10128C001D68724BA3FB0535AD0A876D3E68C26DB8
:10129C0008239340334210D003681A6812F0040FED
:1012AC000BD01A6822F004021A60C26D0823934016
:1012BC00BB60436D43F001034365E26D0123934032
:1012CC00334209D02268526912F0800F04D0BB60FF
:1012DC00636D43F002036365E26D04239340334274
:1012EC0009D02268126812F0020F04D0BB60636D43
:1012FC0043F004036365E26D10239340334224D022
:10130C002268126812F0080F1FD0BB6023681A689D
:10131C0012F4802F0DD01B6813F4002F04D1236C12
:10132C009BB12046984710E0A36C73B120469847B8
:10133C000BE01A6812F4807F03D11A6822F00802BD
:10134C001A60236C0BB120469847E26D2023934022
:10135C00334255D02268126812F0100F50D0BB6087
:10136C0094F83530DBB2052B0ED023681A6812F4D2
:10137C00802F33D01B6813F4002F2AD1636C002B01
:10138C003ED0204698473BE02268136823F01603B2
:10139C0013602268536923F080035361236CA3B15B
:1013AC002268136823F008031360E26D3F23934017
:1013BC00BB60012384F83530002384F83430236D6E
:1013CC00002B3FD0204698473CE0A36C002BE7D184
:1013DC00EBE7E36BA3B12046984711E01A6812F4CF
:1013EC00807F09D11A6822F010021A60012384F858
:1013FC003530002384F83430E36B0BB1204698472A
:10140C00636DFBB1636D13F0010F17D0052384F8E6
:10141C0035302268136823F001031360019B0133FC
:10142C000193AB4204D823681B6813F0010FF5D16C
:10143C00012384F83530002384F83430E36C0BB18D
:10144C002046984703B0F0BD00000020B5814E1B2C
:10145C0000230F2B00F2F98030B583B069E085686A
:10146C004FEA430E032404FA0EF425EA0405CC6873
:10147C0004FA0EF42C438460446824EA02044A689B
:10148C00C2F300129A402243426060E0DC08083448
:10149C0050F8242003F00705AD004FF00F0E0EFAA4
:1014AC0005FE22EA0E0E0A69AA4042EA0E0240F834
:1014BC00242060E0092200E0002202FA0EF22A4306
:1014CC000234624D45F82420614A94686FEA0C029C
:1014DC0024EA0C05D1F804E01EF4801F01D04CEA7C
:1014EC0004055B4CA560E46802EA0405D1F804E04D
:1014FC001EF4001F01D04CEA0405554CE5606468ED
:10150C0002EA0405D1F804E01EF4003F01D04CEAD5
:10151C0004054F4C6560246822404D6815F4803FEB
:10152C0001D04CEA04024A4C226001330F2B00F22A
:10153C008A8001229A400C6804EA020C32EA040404
:10154C00F3D14C6804F00304013C012C87D94A68A0
:10155C0002F00302032A09D0C4685D000322AA40EA
:10156C0024EA02048A68AA402243C2604A6802F054
:10157C000302022A8AD004684FEA430E032202FABD
:10158C000EF224EA02044A6802F0030202FA0EF296
:10159C00224302604A6812F4403FC6D000220192F6
:1015AC002C4A546C44F480445464526C02F48042CF
:1015BC000192019A9C08A51C244A52F8255003F06C
:1015CC00030E4FEA8E0E0F2202FA0EF225EA0205E6
:1015DC00214A90423FF470AF02F58062904222D0D3
:1015EC0002F58062904220D002F5806290421ED0BB
:1015FC0002F5806290421CD002F5806290421AD0B3
:10160C0002F58062904218D002F58062904216D0AA
:10161C0002F58062904214D002F5806290423FF451
:10162C0049AF0A2249E7012247E7022245E7032294
:10163C0043E7042241E705223FE706223DE7072264
:10164C003BE7082239E703B030BD70470038014052
:10165C00003C014000380240000002400AB18161A8
:10166C007047090481617047436901EA030221EA6A
:10167C00030141EA024181617047000010B582B05C
:10168C0000230193194B1A6C42F080521A641B6CA4
:10169C0003F080530193019B154B01221A64FFF751
:1016AC004FFA0446134B5B6813F4803F08D1FFF7E5
:1016BC0047FA001BB0F57A7FF4D9032002B010BDB5
:1016CC000B4B01225A64FFF73BFA0446094B5B684B
:1016DC0013F4003F07D1FFF733FA001BB0F57A7F04
:1016EC00F4D90320EAE70020E8E700BF0038024005
:1016FC0000000E4200700040002800F0E08170B540
:10170C0082B00446036813F0010F3BD09F4B9B68DB
:10171C0003F00C03042B2CD09C4B9B6803F00C03A4
:10172C00082B21D06368B3F5803F4FD0B3F5A02FC1
:10173C0052D0964B1A6822F480321A601A6822F43E
:10174C0080221A606368002B50D0FFF7F9F9054628
:10175C008E4B1B6813F4003F14D1FFF7F1F9401BBB
:10176C006428F5D90320B1E1884B5B6813F4800F32
:10177C00D8D0864B1B6813F4003F03D06368002B52
:10178C0000F09F81236813F0020F54D07F4B9B68AD
:10179C0013F00C0F3ED07D4B9B6803F00C03082B11
:1017AC0033D0E368002B68D0794B01221A60FFF725
:1017BC00C7F90546754B1B6813F0020F54D1FFF7A0
:1017CC00BFF9401B0228F5D903207FE16F4A13684B
:1017DC0043F480331360B5E76C4B1A6842F48022F3
:1017EC001A601A6842F480321A60ABE7FFF7A8F966
:1017FC000546664B1B6813F4003FC3D0FFF7A0F9F6
:10180C00401B6428F5D9032060E1604B5B6813F43E
:10181C00800FC6D15D4B1B6813F0020F03D0E36839
:10182C00012B40F05081594A136823F0F8032169C9
:10183C0043EAC1031360236813F0080F42D06369B5
:10184C006BB3534B0122C3F8802EFFF779F9054691
:10185C004E4B5B6F13F0020F34D1FFF771F9401B45
:10186C000228F5D9032031E1484A136823F0F80324
:10187C00216943EAC1031360DDE7454B00221A607E
:10188C00FFF75EF90546414B1B6813F0020FD2D0EF
:10189C00FFF756F9401B0228F5D9032016E13C4B03
:1018AC000022C3F8802EFFF74BF90546374B5B6FD0
:1018BC0013F0020F06D0FFF743F9401B0228F5D9AD
:1018CC00032003E1236813F0040F77D02F4B1B6C1C
:1018DC0013F0805F33D1002301932C4B1A6C42F030
:1018EC0080521A641B6C03F080530193019B0125F9
:1018FC00284B1B6813F4807F23D0A368012B34D0B2
:10190C00052B38D0214B1A6F22F001021A671A6F7F
:10191C0022F004021A67A368002B3DD0FFF710F9E0
:10192C0006461A4B1B6F13F0020F46D1FFF708F94E
:10193C00801B41F288339842F3D90320C6E000257E
:10194C00D6E7144A136843F480731360FFF7F8F872
:10195C000646104B1B6813F4807FCED1FFF7F0F8CE
:10196C00801B0228F5D90320B0E0084A136F43F01E
:10197C0001031367CFE7054B1A6F42F004021A6795
:10198C001A6F42F001021A67C5E700BF0038024027
:10199C000000474200700040FFF7D2F80646524B59
:1019AC001B6F13F0020F08D0FFF7CAF8801B41F22F
:1019BC0088339842F3D9032088E0EDB9A369002B52
:1019CC0000F08380484A926802F00C02082A51D039
:1019DC00022B17D0454B00221A66FFF7B1F80446CC
:1019EC00414B1B6813F0007F42D0FFF7A9F8001B96
:1019FC000228F5D9032069E03B4A136C23F080538D
:101A0C001364DBE7394B00221A66FFF799F8054699
:101A1C00354B1B6813F0007F06D0FFF791F8401B85
:101A2C000228F5D9032051E0E369226A1343626A64
:101A3C0043EA8213A26A5208013A43EA0243E26A79
:101A4C0043EA0263284A5360284B01221A66FFF7C7
:101A5C0077F80446244B1B6813F0007F06D1FFF780
:101A6C006FF8001B0228F5D903202FE000202DE091
:101A7C0000202BE0012B2BD01B4B5B6803F4800167
:101A8C00E269914226D103F03F02216A8A4223D1B6
:101A9C00616A47F6C0721A40B2EB811F1ED103F483
:101AAC004031A26A5208013AB1EB024F18D103F04F
:101ABC007063E26AB3EB026F14D1002006E00120E0
:101ACC007047012002E0012000E0002002B070BD50
:101ADC000120FBE70120F9E70120F7E70120F5E7FA
:101AEC000120F3E70120F1E70038024000004742F3
:101AFC0008B5264B9B6803F00C03042B41D0082B34
:101B0C0041D1224B5A6802F03F025B6813F4800FFC
:101B1C0012D01E4B5968C1F388111D480023A1FB3C
:101B2C000001FEF75DFB194B5B68C3F30143013306
:101B3C005B00B0FBF3F027E0144B5868C0F388103F
:101B4C004FEA401CBCEB000C6EEB0E0E4FEA8E13F2
:101B5C0043EA9C634FEA8C11B1EB0C0163EB0E036F
:101B6C00DB0043EA5173C90011EB000C43F1000395
:101B7C00990200234FEA8C2041EA9C51FEF730FB7E
:101B8C00D1E7034800E0034808BD00BF003802401D
:101B9C00001BB7000024F400002800F09B8070B5F7
:101BAC000D4604464F4B1B6803F00F038B4208D2C3
:101BBC00CBB24C4A1370136803F00F038B4240F006
:101BCC008B80236813F0020F17D013F0040F04D08E
:101BDC00454A936843F4E0539360236813F0080F6D
:101BEC0004D0414A936843F4604393603E4A93683F
:101BFC0023F0F003A1680B439360236813F0010FEB
:101C0C0032D06368012B21D09A1E012A25D9364A7D
:101C1C00126812F0020F61D033498A6822F0030275
:101C2C0013438B60FEF78CFF06462F4B9B6803F02B
:101C3C000C036268B3EB820F16D0FEF781FF801B9A
:101C4C0041F288339842F0D9032042E0264A1268C8
:101C5C0012F4003FE0D101203BE0234A126812F05D
:101C6C00007FD9D1012034E01E4B1B6803F00F0319
:101C7C00AB4207D9EAB21B4B1A701B6803F00F0377
:101C8C00AB422DD1236813F0040F06D0164A93688B
:101C9C0023F4E053E1680B439360236813F0080FBF
:101CAC0007D0114A936823F46043216943EAC103C6
:101CBC009360FFF71DFF0C4B9B68C3F303130B4A98
:101CCC00D35CD8400A4B18600A4B1868FEF7ECFE40
:101CDC00002070BD012070470120FAE70120F8E7D1
:101CEC000120F6E7003C0240003802400C280008B6
:101CFC000000002008000020014B1868704700BF4E
:101D0C000000002008B5FFF7F7FF044B9B68C3F3F6
:101D1C008223034AD35CD84008BD00BF0038024080
:101D2C000428000808B5FFF7E7FF044B9B68C3F3D2
:101D3C004233034AD35CD84008BD00BF0038024090
:101D4C000428000890F83D30DBB2012B37D1022378
:101D5C0080F83D300268D36843F00103D360036818
:101D6C00194A934220D0B3F1804F1DD0A2F57C428A
:101D7C00934219D002F58062934215D002F580622D
:101D8C00934211D002F5784293420DD002F5705275
:101D9C00934209D0A2F59432934205D01A6842F0CE
:101DAC0001021A60002070479A6802F00702062AA6
:101DBC0007D01A6842F001021A6000207047012017
:101DCC0070470020704700BF00000140704770470B
:101DDC007047704770B504460368DE681D6915F0DE
:101DEC00020F10D016F0020F0DD06FF002021A6124
:101DFC000123037703689B6913F0030F5ED0FFF791
:101E0C00E6FF0023237715F0040F12D016F0040F11
:101E1C000FD023686FF004021A6102232377236822
:101E2C009B6913F4407F4FD02046FFF7D0FF00236F
:101E3C00237715F0080F12D016F0080F0FD0236877
:101E4C006FF008021A61042323772368DB6913F00F
:101E5C00030F40D02046FFF7BAFF0023237715F07D
:101E6C00100F12D016F0100F0FD023686FF0100265
:101E7C001A61082323772368DB6913F4407F31D080
:101E8C002046FFF7A4FF0023237715F0010F02D0A3
:101E9C0016F0010F2DD115F0800F02D016F0800F27
:101EAC002FD115F0400F02D016F0400F31D115F0A4
:101EBC00200F02D016F0200F33D170BDFFF786FF34
:101ECC002046FFF785FF9CE72046FFF77FFF204663
:101EDC00FFF77EFFABE72046FFF778FF2046FFF7C2
:101EEC0077FFBAE72046FFF771FF2046FFF770FF38
:101EFC00C9E723686FF001021A612046FEF7E8FA81
:101F0C00C9E723686FF080021A61204600F0F1F8EF
:101F1C00C7E723686FF040021A612046FFF759FFAC
:101F2C00C5E723686FF020021A61204600F0E0F844
:101F3C00C3E700000368344A904212D0B0F1804FDE
:101F4C000FD0A2F57C4290420BD002F580629042F9
:101F5C0007D002F58062904203D002F5784290429D
:101F6C0003D123F070034A681343274A90422AD0C6
:101F7C00B0F1804F27D0A2F57C42904223D002F5DD
:101F8C00806290421FD002F5806290421BD002F515
:101F9C007842904217D002F57052904213D002F55D
:101FAC00806290420FD002F5806290420BD0A2F575
:101FBC009832904207D002F58062904203D002F52D
:101FCC008062904203D123F44073CA68134323F018
:101FDC0080034A69134303608B68C3620B68836296
:101FEC00094B984203D003F58063984201D10B69E9
:101FFC00036301234361036913F0010F03D00369E9
:10200C0023F00103036170470000014040B310B599
:10201C00044690F83D30F3B1022384F83D3021465C
:10202C0051F8040BFFF786FF012384F8463084F83F
:10203C003E3084F83F3084F8403084F8413084F8E6
:10204C00423084F8433084F8443084F8453084F8C6
:10205C003D30002010BD80F83C30FEF70FFCDBE774
:10206C000120704790F83C20012A3CD010B4034664
:10207C00012280F83C20022280F83D200268506842
:10208C00946820F0700C086840EA0C0050601A68E4
:10209C00164882421AD0B2F1804F17D0A0F57C407E
:1020AC00824213D000F5806082420FD000F5806030
:1020BC0082420BD000F57840824207D000F5705078
:1020CC00824203D0A0F59430824204D124F08004E3
:1020DC00496821439160012283F83D20002083F858
:1020EC003C0010BC70470220704700BF000001404C
:1020FC0070477047026802F10C0353E8003F23F469
:10210C0090730C3242E800310029F3D1026802F1DD
:10211C00140353E8003F23F00103143242E800316A
:10212C000029F3D1036B012B05D0202380F842301A
:10213C00002303637047026802F10C0353E8003F6D
:10214C0023F010030C3242E800310029F3D1ECE704
:10215C0090F84130DBB2212B01D00220704783680C
:10216C00B3F5805F17D0036A5A1C02621A780368B1
:10217C005A60C38C9BB2013B9BB2C3844BB90268BF
:10218C00D36823F08003D3600268D36843F0400324
:10219C00D360002070470369002BE4D1036A1B88CD
:1021AC000268C3F308035360036A02330362E0E777
:1021BC0010B504460268136923F44053C1680B43FD
:1021CC001361836802691A4343691A43C3691A434A
:1021DC000168CB6823F4164323F00C031343CB6044
:1021EC000268536923F4407381690B43536103689C
:1021FC00314A934206D002F58062934202D0FFF737
:10220C0081FD01E0FFF78EFDE369B3F5004F29D0A6
:10221C000021031849411B1841F10001C90041EA92
:10222C005371DB00181863684FEA83024FEA93730B
:10223C0041F10001FDF7D4FF204AA2FB003149090E
:10224C00642303FB11031B013233A2FB03235B0941
:10225C0003F0F00202EB011203F00F0321681344A8
:10226C008B6010BD0023021843EB0301121841F1DF
:10227C000001C90041EA5271D200101841F100016D
:10228C00626892185B41FDF7ABFF0C4AA2FB003170
:10229C004909642303FB1103DB003233A2FB032344
:1022AC005B095A0002F4F87202EB011203F0070307
:1022BC00216813448B60D4E7001001401F85EB515B
:1022CC0060B310B5044690F8413013B3242384F85E
:1022DC0041302268D36823F40053D3602046FFF7C3
:1022EC0067FF2268136923F49043136122685369D2
:1022FC0023F02A0353612268D36843F40053D3605C
:10230C0000206064202384F8413084F842306063FC
:10231C0010BD80F84030FEF70BFBD7E7012070476B
:10232C00704708B50168CA6822F04002CA602022D2
:10233C0080F84120FFF7F4FF002008BD704770477C
:10234C0008B5806B0023C385C384FFF7F8FF08BD75
:10235C00704790F84230DBB2222B69D18368B3F519
:10236C00805F4FD0826AB3F5805F04D0002B56D1CA
:10237C000369002B53D103685B681370836A0133C4
:10238C008362C38D9BB2013B9BB2C385002B51D1A1
:10239C0000B583B00268D36823F02003D3600268D1
:1023AC00D36823F48073D3600268536923F001036C
:1023BC005361202380F8423000234363036B012BCD
:1023CC0033D100230363026802F10C0353E8003F8E
:1023DC0023F010030C3242E800310029F3D10368DA
:1023EC001A6812F0100F06D0002201921A6801929E
:1023FC005B680193019B818DFFF7AAFF002003B05E
:10240C005DF804FB0269002AACD1826A03685B6840
:10241C00C3F308031380836A02338362B1E7036852
:10242C005B6803F07F031370A8E7FFF787FFE5E70E
:10243C00022070470020704710B582B00446026835
:10244C001368D068516913F00F0F09D113F0200FE6
:10245C000CD010F0200F09D02046FFF77AFF16E0C1
:10246C0011F0010115D110F4907F12D1216B0129CB
:10247C0079D013F0800F03D010F0800F40F014814E
:10248C0013F0400F03D010F0400F40F0118102B058
:10249C0010BD13F0010F06D010F4807F03D0626CD6
:1024AC0042F00102626413F0040F04D019B1626CA3
:1024BC0042F00202626413F0020F04D019B1626C94
:1024CC0042F00402626413F0080F07D010F0200FE2
:1024DC0000D119B1626C42F008026264626C002A8D
:1024EC00D5D013F0200F02D010F0200F29D1236883
:1024FC005B6903F04003626C12F0080F00D163B308
:10250C002046FFF7F7FD23685B6913F0400F20D0DE
:10251C00226802F1140353E8003F23F04003143205
:10252C0042E800310029F3D1E36B73B1624A1A65BA
:10253C00E06BFEF78BFE0028A9D0E06B036D98478B
:10254C00A5E72046FFF705FFD1E72046FFF7F7FE8A
:10255C009DE72046FFF7F3FE99E72046FFF7EFFED5
:10256C000023636493E713F0100F82D010F0100F68
:10257C003FF47FAF002301931368019353680193D9
:10258C00019B536913F0400F52D0E26B13685B68E8
:10259C009BB2002B3FF47BAFA18D99427FF677AFB6
:1025AC00E385D369B3F5807F37D0226802F10C0341
:1025BC0053E8003F23F480730C3242E800310029C9
:1025CC00F3D1226802F1140353E8003F23F0010316
:1025DC00143242E800310029F3D1226802F11403CD
:1025EC0053E8003F23F04003143242E80031002945
:1025FC00F3D1202384F8423000232363226802F1B4
:10260C000C0353E8003F23F010030C3242E8003176
:10261C000029F3D1E06BFEF7CFFD02236363A18D9C
:10262C00E38D9BB2C91A89B22046FFF791FE2EE7C3
:10263C00A18DE38D9BB2C91A89B2E38D9BB2002B9D
:10264C003FF425AF00293FF422AF226802F10C03BE
:10265C0053E8003F23F490730C3242E8003000281A
:10266C00F3D1226802F1140353E8003F23F0010375
:10267C00143242E800300028F3D1202384F8423091
:10268C0000232363226802F10C0353E8003F23F07C
:10269C0010030C3242E800300028F3D102236363AC
:1026AC002046FFF755FEF2E62046FFF751FDEEE619
:1026BC002046FFF736FEEAE64D23000802440346A7
:1026CC00934200D1704703F8011BF9E770B50D4D2B
:1026DC000D4C641BA4100026A64209D10B4D0C4CCA
:1026EC0000F07EF8641BA4100026A64205D170BD34
:1026FC0055F8043B98470136EEE755F8043B9847EC
:10270C000136F2E72C2800082C2800082C28000899
:10271C003428000870477047024B13B1024800F090
:10272C0005B870470000000045270008002301464B
:10273C001A46184600F014B838B5074D074C641B00
:10274C00A4101CB9BDE8384000F050B8013C55F855
:10275C0024309847F5E700BF3428000838280008D3
:10276C002DE9F047DFF86CA00646DAF80000984631
:10277C000F469146FFF7CEFF174B1C680CB9174C50
:10278C001C606568DAF800001F2D05DDFFF7C3FF3C
:10279C004FF0FF30BDE8F0879EB104EB85010122BC
:1027AC00C1F88890D4F88831AA401343C4F8883112
:1027BC00022EC1F8088102BFD4F88C311343C4F83F
:1027CC008C316B1C0235636044F82570FFF7A3FF56
:1027DC000020DFE70C00002094010020980100206D
:1027EC00F8B500BFF8BC08BC9E467047F8B500BFF2
:0827FC00F8BC08BC9E467047C2
:1028040000000000010203040000000000000000BA
:102814000102030406070809000610160006101634
:08282400F8D9FF7F010000005C
:08282C0025270008D101000876
:04283400AD010008EA
:102838000024F400010000001000000090010020B6
:0400000508000A6184
:00000001FF
